{
    "_format": "hh-sol-artifact-1",
    "contractName": "APCollection",
    "sourceName": "contracts/APNFT.sol",
    "abi": [
        {
            "inputs": [],
            "stateMutability": "nonpayable",
            "type": "constructor"
        },
        {
            "anonymous": false,
            "inputs": [
                {
                    "indexed": true,
                    "internalType": "address",
                    "name": "owner",
                    "type": "address"
                },
                {
                    "indexed": true,
                    "internalType": "address",
                    "name": "approved",
                    "type": "address"
                },
                {
                    "indexed": true,
                    "internalType": "uint256",
                    "name": "tokenId",
                    "type": "uint256"
                }
            ],
            "name": "Approval",
            "type": "event"
        },
        {
            "anonymous": false,
            "inputs": [
                {
                    "indexed": true,
                    "internalType": "address",
                    "name": "owner",
                    "type": "address"
                },
                {
                    "indexed": true,
                    "internalType": "address",
                    "name": "operator",
                    "type": "address"
                },
                {
                    "indexed": false,
                    "internalType": "bool",
                    "name": "approved",
                    "type": "bool"
                }
            ],
            "name": "ApprovalForAll",
            "type": "event"
        },
        {
            "anonymous": false,
            "inputs": [
                {
                    "indexed": false,
                    "internalType": "address",
                    "name": "_tokenOwner",
                    "type": "address"
                },
                {
                    "indexed": false,
                    "internalType": "address",
                    "name": "_to",
                    "type": "address"
                },
                {
                    "indexed": false,
                    "internalType": "uint256",
                    "name": "_tokenId",
                    "type": "uint256"
                }
            ],
            "name": "TokenBurned",
            "type": "event"
        },
        {
            "anonymous": false,
            "inputs": [
                {
                    "indexed": true,
                    "internalType": "address",
                    "name": "from",
                    "type": "address"
                },
                {
                    "indexed": true,
                    "internalType": "address",
                    "name": "to",
                    "type": "address"
                },
                {
                    "indexed": true,
                    "internalType": "uint256",
                    "name": "tokenId",
                    "type": "uint256"
                }
            ],
            "name": "Transfer",
            "type": "event"
        },
        {
            "inputs": [
                {
                    "internalType": "address",
                    "name": "",
                    "type": "address"
                }
            ],
            "name": "NFTOwner",
            "outputs": [
                {
                    "internalType": "uint256",
                    "name": "",
                    "type": "uint256"
                }
            ],
            "stateMutability": "view",
            "type": "function"
        },
        {
            "inputs": [
                {
                    "internalType": "uint256",
                    "name": "",
                    "type": "uint256"
                }
            ],
            "name": "_ownerOfNFT",
            "outputs": [
                {
                    "internalType": "address",
                    "name": "",
                    "type": "address"
                }
            ],
            "stateMutability": "view",
            "type": "function"
        },
        {
            "inputs": [],
            "name": "admin",
            "outputs": [
                {
                    "internalType": "address",
                    "name": "",
                    "type": "address"
                }
            ],
            "stateMutability": "view",
            "type": "function"
        },
        {
            "inputs": [
                {
                    "internalType": "address",
                    "name": "to",
                    "type": "address"
                },
                {
                    "internalType": "uint256",
                    "name": "tokenId",
                    "type": "uint256"
                }
            ],
            "name": "approve",
            "outputs": [],
            "stateMutability": "nonpayable",
            "type": "function"
        },
        {
            "inputs": [
                {
                    "internalType": "address",
                    "name": "owner",
                    "type": "address"
                }
            ],
            "name": "balanceOf",
            "outputs": [
                {
                    "internalType": "uint256",
                    "name": "",
                    "type": "uint256"
                }
            ],
            "stateMutability": "view",
            "type": "function"
        },
        {
            "inputs": [
                {
                    "internalType": "uint256",
                    "name": "tokenId",
                    "type": "uint256"
                }
            ],
            "name": "burn",
            "outputs": [],
            "stateMutability": "nonpayable",
            "type": "function"
        },
        {
            "inputs": [
                {
                    "internalType": "uint256",
                    "name": "tokenId",
                    "type": "uint256"
                }
            ],
            "name": "getApproved",
            "outputs": [
                {
                    "internalType": "address",
                    "name": "",
                    "type": "address"
                }
            ],
            "stateMutability": "view",
            "type": "function"
        },
        {
            "inputs": [
                {
                    "internalType": "address",
                    "name": "owner",
                    "type": "address"
                },
                {
                    "internalType": "address",
                    "name": "operator",
                    "type": "address"
                }
            ],
            "name": "isApprovedForAll",
            "outputs": [
                {
                    "internalType": "bool",
                    "name": "",
                    "type": "bool"
                }
            ],
            "stateMutability": "view",
            "type": "function"
        },
        {
            "inputs": [],
            "name": "mint",
            "outputs": [
                {
                    "internalType": "uint256",
                    "name": "",
                    "type": "uint256"
                }
            ],
            "stateMutability": "nonpayable",
            "type": "function"
        },
        {
            "inputs": [],
            "name": "name",
            "outputs": [
                {
                    "internalType": "string",
                    "name": "",
                    "type": "string"
                }
            ],
            "stateMutability": "view",
            "type": "function"
        },
        {
            "inputs": [
                {
                    "internalType": "uint256",
                    "name": "tokenId",
                    "type": "uint256"
                }
            ],
            "name": "ownerOf",
            "outputs": [
                {
                    "internalType": "address",
                    "name": "",
                    "type": "address"
                }
            ],
            "stateMutability": "view",
            "type": "function"
        },
        {
            "inputs": [
                {
                    "internalType": "address",
                    "name": "from",
                    "type": "address"
                },
                {
                    "internalType": "address",
                    "name": "to",
                    "type": "address"
                },
                {
                    "internalType": "uint256",
                    "name": "tokenId",
                    "type": "uint256"
                }
            ],
            "name": "safeTransferFrom",
            "outputs": [],
            "stateMutability": "nonpayable",
            "type": "function"
        },
        {
            "inputs": [
                {
                    "internalType": "address",
                    "name": "from",
                    "type": "address"
                },
                {
                    "internalType": "address",
                    "name": "to",
                    "type": "address"
                },
                {
                    "internalType": "uint256",
                    "name": "tokenId",
                    "type": "uint256"
                },
                {
                    "internalType": "bytes",
                    "name": "data",
                    "type": "bytes"
                }
            ],
            "name": "safeTransferFrom",
            "outputs": [],
            "stateMutability": "nonpayable",
            "type": "function"
        },
        {
            "inputs": [
                {
                    "internalType": "address",
                    "name": "operator",
                    "type": "address"
                },
                {
                    "internalType": "bool",
                    "name": "approved",
                    "type": "bool"
                }
            ],
            "name": "setApprovalForAll",
            "outputs": [],
            "stateMutability": "nonpayable",
            "type": "function"
        },
        {
            "inputs": [
                {
                    "internalType": "bytes4",
                    "name": "interfaceId",
                    "type": "bytes4"
                }
            ],
            "name": "supportsInterface",
            "outputs": [
                {
                    "internalType": "bool",
                    "name": "",
                    "type": "bool"
                }
            ],
            "stateMutability": "view",
            "type": "function"
        },
        {
            "inputs": [],
            "name": "symbol",
            "outputs": [
                {
                    "internalType": "string",
                    "name": "",
                    "type": "string"
                }
            ],
            "stateMutability": "view",
            "type": "function"
        },
        {
            "inputs": [
                {
                    "internalType": "uint256",
                    "name": "tokenId",
                    "type": "uint256"
                }
            ],
            "name": "tokenURI",
            "outputs": [
                {
                    "internalType": "string",
                    "name": "",
                    "type": "string"
                }
            ],
            "stateMutability": "view",
            "type": "function"
        },
        {
            "inputs": [
                {
                    "internalType": "address",
                    "name": "from",
                    "type": "address"
                },
                {
                    "internalType": "address",
                    "name": "to",
                    "type": "address"
                },
                {
                    "internalType": "uint256",
                    "name": "tokenId",
                    "type": "uint256"
                }
            ],
            "name": "transferFrom",
            "outputs": [],
            "stateMutability": "nonpayable",
            "type": "function"
        }
    ],
    "bytecode": "0x608060405260405180608001604052806044815260200162002f766044913960099080519060200190620000359291906200012b565b503480156200004357600080fd5b506040518060400160405280600981526020017f414920416c69656e7300000000000000000000000000000000000000000000008152506040518060400160405280600381526020017f41494100000000000000000000000000000000000000000000000000000000008152508160009080519060200190620000c89291906200012b565b508060019080519060200190620000e19291906200012b565b50505033600860006101000a81548173ffffffffffffffffffffffffffffffffffffffff021916908373ffffffffffffffffffffffffffffffffffffffff16021790555062000240565b82805462000139906200020a565b90600052602060002090601f0160209004810192826200015d5760008555620001a9565b82601f106200017857805160ff1916838001178555620001a9565b82800160010185558215620001a9579182015b82811115620001a85782518255916020019190600101906200018b565b5b509050620001b89190620001bc565b5090565b5b80821115620001d7576000816000905550600101620001bd565b5090565b7f4e487b7100000000000000000000000000000000000000000000000000000000600052602260045260246000fd5b600060028204905060018216806200022357607f821691505b602082108114156200023a5762000239620001db565b5b50919050565b612d2680620002506000396000f3fe608060405234801561001057600080fd5b50600436106101165760003560e01c80636352211e116100a2578063a22cb46511610071578063a22cb46514610305578063b88d4fde14610321578063c87b56dd1461033d578063e985e9c51461036d578063f851a4401461039d57610116565b80636352211e1461025757806370a082311461028757806377edcb6a146102b757806395d89b41146102e757610116565b80631249c58b116100e95780631249c58b146101b557806323b872dd146101d357806342842e0e146101ef57806342966c681461020b57806353d927d81461022757610116565b806301ffc9a71461011b57806306fdde031461014b578063081812fc14610169578063095ea7b314610199575b600080fd5b61013560048036038101906101309190611c41565b6103bb565b6040516101429190611c89565b60405180910390f35b61015361049d565b6040516101609190611d3d565b60405180910390f35b610183600480360381019061017e9190611d95565b61052f565b6040516101909190611e03565b60405180910390f35b6101b360048036038101906101ae9190611e4a565b610575565b005b6101bd61068d565b6040516101ca9190611e99565b60405180910390f35b6101ed60048036038101906101e89190611eb4565b610782565b005b61020960048036038101906102049190611eb4565b6107e2565b005b61022560048036038101906102209190611d95565b610802565b005b610241600480360381019061023c9190611f07565b61096e565b60405161024e9190611e99565b60405180910390f35b610271600480360381019061026c9190611d95565b610986565b60405161027e9190611e03565b60405180910390f35b6102a1600480360381019061029c9190611f07565b610a38565b6040516102ae9190611e99565b60405180910390f35b6102d160048036038101906102cc9190611d95565b610af0565b6040516102de9190611e03565b60405180910390f35b6102ef610b23565b6040516102fc9190611d3d565b60405180910390f35b61031f600480360381019061031a9190611f60565b610bb5565b005b61033b600480360381019061033691906120d5565b610bcb565b005b61035760048036038101906103529190611d95565b610c2d565b6040516103649190611d3d565b60405180910390f35b61038760048036038101906103829190612158565b610d40565b6040516103949190611c89565b60405180910390f35b6103a5610dd4565b6040516103b29190611e03565b60405180910390f35b60007f80ac58cd000000000000000000000000000000000000000000000000000000007bffffffffffffffffffffffffffffffffffffffffffffffffffffffff1916827bffffffffffffffffffffffffffffffffffffffffffffffffffffffff1916148061048657507f5b5e139f000000000000000000000000000000000000000000000000000000007bffffffffffffffffffffffffffffffffffffffffffffffffffffffff1916827bffffffffffffffffffffffffffffffffffffffffffffffffffffffff1916145b80610496575061049582610dfa565b5b9050919050565b6060600080546104ac906121c7565b80601f01602080910402602001604051908101604052809291908181526020018280546104d8906121c7565b80156105255780601f106104fa57610100808354040283529160200191610525565b820191906000526020600020905b81548152906001019060200180831161050857829003601f168201915b5050505050905090565b600061053a82610e64565b6004600083815260200190815260200160002060009054906101000a900473ffffffffffffffffffffffffffffffffffffffff169050919050565b600061058082610986565b90508073ffffffffffffffffffffffffffffffffffffffff168373ffffffffffffffffffffffffffffffffffffffff1614156105f1576040517f08c379a00000000000000000000000000000000000000000000000000000000081526004016105e89061226b565b60405180910390fd5b8073ffffffffffffffffffffffffffffffffffffffff16610610610eaf565b73ffffffffffffffffffffffffffffffffffffffff16148061063f575061063e81610639610eaf565b610d40565b5b61067e576040517f08c379a0000000000000000000000000000000000000000000000000000000008152600401610675906122fd565b60405180910390fd5b6106888383610eb7565b505050565b60006106996007610f70565b60006106a56007610f86565b90506106b13382610f94565b33600a600083815260200190815260200160002060006101000a81548173ffffffffffffffffffffffffffffffffffffffff021916908373ffffffffffffffffffffffffffffffffffffffff16021790555080600b60003373ffffffffffffffffffffffffffffffffffffffff1673ffffffffffffffffffffffffffffffffffffffff1681526020019081526020016000208190555061077b8160096107568461116e565b604051602001610767929190612439565b6040516020818303038152906040526112cf565b8091505090565b61079361078d610eaf565b82611343565b6107d2576040517f08c379a00000000000000000000000000000000000000000000000000000000081526004016107c9906124da565b60405180910390fd5b6107dd8383836113d8565b505050565b6107fd83838360405180602001604052806000815250610bcb565b505050565b600a600082815260200190815260200160002060009054906101000a900473ffffffffffffffffffffffffffffffffffffffff1673ffffffffffffffffffffffffffffffffffffffff163373ffffffffffffffffffffffffffffffffffffffff16146108a3576040517f08c379a000000000000000000000000000000000000000000000000000000000815260040161089a90612546565b60405180910390fd5b600a600082815260200190815260200160002060006101000a81549073ffffffffffffffffffffffffffffffffffffffff021916905580600b60003373ffffffffffffffffffffffffffffffffffffffff1673ffffffffffffffffffffffffffffffffffffffff16815260200190815260200160002060008282546109289190612595565b925050819055507fbfa41556980d157c24e8632dbb78958f8759a86b4acdea421f93dc7259fb55db33600083604051610963939291906125c9565b60405180910390a150565b600b6020528060005260406000206000915090505481565b6000806002600084815260200190815260200160002060009054906101000a900473ffffffffffffffffffffffffffffffffffffffff169050600073ffffffffffffffffffffffffffffffffffffffff168173ffffffffffffffffffffffffffffffffffffffff161415610a2f576040517f08c379a0000000000000000000000000000000000000000000000000000000008152600401610a269061264c565b60405180910390fd5b80915050919050565b60008073ffffffffffffffffffffffffffffffffffffffff168273ffffffffffffffffffffffffffffffffffffffff161415610aa9576040517f08c379a0000000000000000000000000000000000000000000000000000000008152600401610aa0906126de565b60405180910390fd5b600360008373ffffffffffffffffffffffffffffffffffffffff1673ffffffffffffffffffffffffffffffffffffffff168152602001908152602001600020549050919050565b600a6020528060005260406000206000915054906101000a900473ffffffffffffffffffffffffffffffffffffffff1681565b606060018054610b32906121c7565b80601f0160208091040260200160405190810160405280929190818152602001828054610b5e906121c7565b8015610bab5780601f10610b8057610100808354040283529160200191610bab565b820191906000526020600020905b815481529060010190602001808311610b8e57829003601f168201915b5050505050905090565b610bc7610bc0610eaf565b838361163f565b5050565b610bdc610bd6610eaf565b83611343565b610c1b576040517f08c379a0000000000000000000000000000000000000000000000000000000008152600401610c12906124da565b60405180910390fd5b610c27848484846117ac565b50505050565b6060610c3882610e64565b6000600660008481526020019081526020016000208054610c58906121c7565b80601f0160208091040260200160405190810160405280929190818152602001828054610c84906121c7565b8015610cd15780601f10610ca657610100808354040283529160200191610cd1565b820191906000526020600020905b815481529060010190602001808311610cb457829003601f168201915b505050505090506000610ce2611808565b9050600081511415610cf8578192505050610d3b565b600082511115610d2d578082604051602001610d159291906126fe565b60405160208183030381529060405292505050610d3b565b610d368461189a565b925050505b919050565b6000600560008473ffffffffffffffffffffffffffffffffffffffff1673ffffffffffffffffffffffffffffffffffffffff16815260200190815260200160002060008373ffffffffffffffffffffffffffffffffffffffff1673ffffffffffffffffffffffffffffffffffffffff16815260200190815260200160002060009054906101000a900460ff16905092915050565b600860009054906101000a900473ffffffffffffffffffffffffffffffffffffffff1681565b60007f01ffc9a7000000000000000000000000000000000000000000000000000000007bffffffffffffffffffffffffffffffffffffffffffffffffffffffff1916827bffffffffffffffffffffffffffffffffffffffffffffffffffffffff1916149050919050565b610e6d81611902565b610eac576040517f08c379a0000000000000000000000000000000000000000000000000000000008152600401610ea39061264c565b60405180910390fd5b50565b600033905090565b816004600083815260200190815260200160002060006101000a81548173ffffffffffffffffffffffffffffffffffffffff021916908373ffffffffffffffffffffffffffffffffffffffff160217905550808273ffffffffffffffffffffffffffffffffffffffff16610f2a83610986565b73ffffffffffffffffffffffffffffffffffffffff167f8c5be1e5ebec7d5bd14f71427d1e84f3dd0314c0f7b2291e5b200ac8c7c3b92560405160405180910390a45050565b6001816000016000828254019250508190555050565b600081600001549050919050565b600073ffffffffffffffffffffffffffffffffffffffff168273ffffffffffffffffffffffffffffffffffffffff161415611004576040517f08c379a0000000000000000000000000000000000000000000000000000000008152600401610ffb9061276e565b60405180910390fd5b61100d81611902565b1561104d576040517f08c379a0000000000000000000000000000000000000000000000000000000008152600401611044906127da565b60405180910390fd5b6110596000838361196e565b6001600360008473ffffffffffffffffffffffffffffffffffffffff1673ffffffffffffffffffffffffffffffffffffffff16815260200190815260200160002060008282546110a991906127fa565b92505081905550816002600083815260200190815260200160002060006101000a81548173ffffffffffffffffffffffffffffffffffffffff021916908373ffffffffffffffffffffffffffffffffffffffff160217905550808273ffffffffffffffffffffffffffffffffffffffff16600073ffffffffffffffffffffffffffffffffffffffff167fddf252ad1be2c89b69c2b068fc378daa952ba7f163c4a11628f55a4df523b3ef60405160405180910390a461116a60008383611973565b5050565b606060008214156111b6576040518060400160405280600181526020017f300000000000000000000000000000000000000000000000000000000000000081525090506112ca565b600082905060005b600082146111e85780806111d190612850565b915050600a826111e191906128c8565b91506111be565b60008167ffffffffffffffff81111561120457611203611faa565b5b6040519080825280601f01601f1916602001820160405280156112365781602001600182028036833780820191505090505b5090505b600085146112c35760018261124f9190612595565b9150600a8561125e91906128f9565b603061126a91906127fa565b60f81b8183815181106112805761127f61292a565b5b60200101907effffffffffffffffffffffffffffffffffffffffffffffffffffffffffffff1916908160001a905350600a856112bc91906128c8565b945061123a565b8093505050505b919050565b6112d882611902565b611317576040517f08c379a000000000000000000000000000000000000000000000000000000000815260040161130e906129cb565b60405180910390fd5b8060066000848152602001908152602001600020908051906020019061133e929190611b32565b505050565b60008061134f83610986565b90508073ffffffffffffffffffffffffffffffffffffffff168473ffffffffffffffffffffffffffffffffffffffff16148061139157506113908185610d40565b5b806113cf57508373ffffffffffffffffffffffffffffffffffffffff166113b78461052f565b73ffffffffffffffffffffffffffffffffffffffff16145b91505092915050565b8273ffffffffffffffffffffffffffffffffffffffff166113f882610986565b73ffffffffffffffffffffffffffffffffffffffff161461144e576040517f08c379a000000000000000000000000000000000000000000000000000000000815260040161144590612a5d565b60405180910390fd5b600073ffffffffffffffffffffffffffffffffffffffff168273ffffffffffffffffffffffffffffffffffffffff1614156114be576040517f08c379a00000000000000000000000000000000000000000000000000000000081526004016114b590612aef565b60405180910390fd5b6114c983838361196e565b6114d4600082610eb7565b6001600360008573ffffffffffffffffffffffffffffffffffffffff1673ffffffffffffffffffffffffffffffffffffffff16815260200190815260200160002060008282546115249190612595565b925050819055506001600360008473ffffffffffffffffffffffffffffffffffffffff1673ffffffffffffffffffffffffffffffffffffffff168152602001908152602001600020600082825461157b91906127fa565b92505081905550816002600083815260200190815260200160002060006101000a81548173ffffffffffffffffffffffffffffffffffffffff021916908373ffffffffffffffffffffffffffffffffffffffff160217905550808273ffffffffffffffffffffffffffffffffffffffff168473ffffffffffffffffffffffffffffffffffffffff167fddf252ad1be2c89b69c2b068fc378daa952ba7f163c4a11628f55a4df523b3ef60405160405180910390a461163a838383611973565b505050565b8173ffffffffffffffffffffffffffffffffffffffff168373ffffffffffffffffffffffffffffffffffffffff1614156116ae576040517f08c379a00000000000000000000000000000000000000000000000000000000081526004016116a590612b5b565b60405180910390fd5b80600560008573ffffffffffffffffffffffffffffffffffffffff1673ffffffffffffffffffffffffffffffffffffffff16815260200190815260200160002060008473ffffffffffffffffffffffffffffffffffffffff1673ffffffffffffffffffffffffffffffffffffffff16815260200190815260200160002060006101000a81548160ff0219169083151502179055508173ffffffffffffffffffffffffffffffffffffffff168373ffffffffffffffffffffffffffffffffffffffff167f17307eab39ab6107e8899845ad3d59bd9653f200f220920489ca2b5937696c318360405161179f9190611c89565b60405180910390a3505050565b6117b78484846113d8565b6117c384848484611978565b611802576040517f08c379a00000000000000000000000000000000000000000000000000000000081526004016117f990612bed565b60405180910390fd5b50505050565b606060098054611817906121c7565b80601f0160208091040260200160405190810160405280929190818152602001828054611843906121c7565b80156118905780601f1061186557610100808354040283529160200191611890565b820191906000526020600020905b81548152906001019060200180831161187357829003601f168201915b5050505050905090565b60606118a582610e64565b60006118af611808565b905060008151116118cf57604051806020016040528060008152506118fa565b806118d98461116e565b6040516020016118ea9291906126fe565b6040516020818303038152906040525b915050919050565b60008073ffffffffffffffffffffffffffffffffffffffff166002600084815260200190815260200160002060009054906101000a900473ffffffffffffffffffffffffffffffffffffffff1673ffffffffffffffffffffffffffffffffffffffff1614159050919050565b505050565b505050565b60006119998473ffffffffffffffffffffffffffffffffffffffff16611b0f565b15611b02578373ffffffffffffffffffffffffffffffffffffffff1663150b7a026119c2610eaf565b8786866040518563ffffffff1660e01b81526004016119e49493929190612c62565b602060405180830381600087803b1580156119fe57600080fd5b505af1925050508015611a2f57506040513d601f19601f82011682018060405250810190611a2c9190612cc3565b60015b611ab2573d8060008114611a5f576040519150601f19603f3d011682016040523d82523d6000602084013e611a64565b606091505b50600081511415611aaa576040517f08c379a0000000000000000000000000000000000000000000000000000000008152600401611aa190612bed565b60405180910390fd5b805181602001fd5b63150b7a0260e01b7bffffffffffffffffffffffffffffffffffffffffffffffffffffffff1916817bffffffffffffffffffffffffffffffffffffffffffffffffffffffff191614915050611b07565b600190505b949350505050565b6000808273ffffffffffffffffffffffffffffffffffffffff163b119050919050565b828054611b3e906121c7565b90600052602060002090601f016020900481019282611b605760008555611ba7565b82601f10611b7957805160ff1916838001178555611ba7565b82800160010185558215611ba7579182015b82811115611ba6578251825591602001919060010190611b8b565b5b509050611bb49190611bb8565b5090565b5b80821115611bd1576000816000905550600101611bb9565b5090565b6000604051905090565b600080fd5b600080fd5b60007fffffffff0000000000000000000000000000000000000000000000000000000082169050919050565b611c1e81611be9565b8114611c2957600080fd5b50565b600081359050611c3b81611c15565b92915050565b600060208284031215611c5757611c56611bdf565b5b6000611c6584828501611c2c565b91505092915050565b60008115159050919050565b611c8381611c6e565b82525050565b6000602082019050611c9e6000830184611c7a565b92915050565b600081519050919050565b600082825260208201905092915050565b60005b83811015611cde578082015181840152602081019050611cc3565b83811115611ced576000848401525b50505050565b6000601f19601f8301169050919050565b6000611d0f82611ca4565b611d198185611caf565b9350611d29818560208601611cc0565b611d3281611cf3565b840191505092915050565b60006020820190508181036000830152611d578184611d04565b905092915050565b6000819050919050565b611d7281611d5f565b8114611d7d57600080fd5b50565b600081359050611d8f81611d69565b92915050565b600060208284031215611dab57611daa611bdf565b5b6000611db984828501611d80565b91505092915050565b600073ffffffffffffffffffffffffffffffffffffffff82169050919050565b6000611ded82611dc2565b9050919050565b611dfd81611de2565b82525050565b6000602082019050611e186000830184611df4565b92915050565b611e2781611de2565b8114611e3257600080fd5b50565b600081359050611e4481611e1e565b92915050565b60008060408385031215611e6157611e60611bdf565b5b6000611e6f85828601611e35565b9250506020611e8085828601611d80565b9150509250929050565b611e9381611d5f565b82525050565b6000602082019050611eae6000830184611e8a565b92915050565b600080600060608486031215611ecd57611ecc611bdf565b5b6000611edb86828701611e35565b9350506020611eec86828701611e35565b9250506040611efd86828701611d80565b9150509250925092565b600060208284031215611f1d57611f1c611bdf565b5b6000611f2b84828501611e35565b91505092915050565b611f3d81611c6e565b8114611f4857600080fd5b50565b600081359050611f5a81611f34565b92915050565b60008060408385031215611f7757611f76611bdf565b5b6000611f8585828601611e35565b9250506020611f9685828601611f4b565b9150509250929050565b600080fd5b600080fd5b7f4e487b7100000000000000000000000000000000000000000000000000000000600052604160045260246000fd5b611fe282611cf3565b810181811067ffffffffffffffff8211171561200157612000611faa565b5b80604052505050565b6000612014611bd5565b90506120208282611fd9565b919050565b600067ffffffffffffffff8211156120405761203f611faa565b5b61204982611cf3565b9050602081019050919050565b82818337600083830152505050565b600061207861207384612025565b61200a565b90508281526020810184848401111561209457612093611fa5565b5b61209f848285612056565b509392505050565b600082601f8301126120bc576120bb611fa0565b5b81356120cc848260208601612065565b91505092915050565b600080600080608085870312156120ef576120ee611bdf565b5b60006120fd87828801611e35565b945050602061210e87828801611e35565b935050604061211f87828801611d80565b925050606085013567ffffffffffffffff8111156121405761213f611be4565b5b61214c878288016120a7565b91505092959194509250565b6000806040838503121561216f5761216e611bdf565b5b600061217d85828601611e35565b925050602061218e85828601611e35565b9150509250929050565b7f4e487b7100000000000000000000000000000000000000000000000000000000600052602260045260246000fd5b600060028204905060018216806121df57607f821691505b602082108114156121f3576121f2612198565b5b50919050565b7f4552433732313a20617070726f76616c20746f2063757272656e74206f776e6560008201527f7200000000000000000000000000000000000000000000000000000000000000602082015250565b6000612255602183611caf565b9150612260826121f9565b604082019050919050565b6000602082019050818103600083015261228481612248565b9050919050565b7f4552433732313a20617070726f76652063616c6c6572206973206e6f7420746f60008201527f6b656e206f776e6572206e6f7220617070726f76656420666f7220616c6c0000602082015250565b60006122e7603e83611caf565b91506122f28261228b565b604082019050919050565b60006020820190508181036000830152612316816122da565b9050919050565b600081905092915050565b60008190508160005260206000209050919050565b6000815461234a816121c7565b612354818661231d565b9450600182166000811461236f5760018114612380576123b3565b60ff198316865281860193506123b3565b61238985612328565b60005b838110156123ab5781548189015260018201915060208101905061238c565b838801955050505b50505092915050565b60006123c782611ca4565b6123d1818561231d565b93506123e1818560208601611cc0565b80840191505092915050565b7f2e6a736f6e000000000000000000000000000000000000000000000000000000600082015250565b600061242360058361231d565b915061242e826123ed565b600582019050919050565b6000612445828561233d565b915061245182846123bc565b915061245c82612416565b91508190509392505050565b7f4552433732313a2063616c6c6572206973206e6f7420746f6b656e206f776e6560008201527f72206e6f7220617070726f766564000000000000000000000000000000000000602082015250565b60006124c4602e83611caf565b91506124cf82612468565b604082019050919050565b600060208201905081810360008301526124f3816124b7565b9050919050565b7f6e6f74206f776e6572206f6620746f6b656e0000000000000000000000000000600082015250565b6000612530601283611caf565b915061253b826124fa565b602082019050919050565b6000602082019050818103600083015261255f81612523565b9050919050565b7f4e487b7100000000000000000000000000000000000000000000000000000000600052601160045260246000fd5b60006125a082611d5f565b91506125ab83611d5f565b9250828210156125be576125bd612566565b5b828203905092915050565b60006060820190506125de6000830186611df4565b6125eb6020830185611df4565b6125f86040830184611e8a565b949350505050565b7f4552433732313a20696e76616c696420746f6b656e2049440000000000000000600082015250565b6000612636601883611caf565b915061264182612600565b602082019050919050565b6000602082019050818103600083015261266581612629565b9050919050565b7f4552433732313a2061646472657373207a65726f206973206e6f74206120766160008201527f6c6964206f776e65720000000000000000000000000000000000000000000000602082015250565b60006126c8602983611caf565b91506126d38261266c565b604082019050919050565b600060208201905081810360008301526126f7816126bb565b9050919050565b600061270a82856123bc565b915061271682846123bc565b91508190509392505050565b7f4552433732313a206d696e7420746f20746865207a65726f2061646472657373600082015250565b6000612758602083611caf565b915061276382612722565b602082019050919050565b600060208201905081810360008301526127878161274b565b9050919050565b7f4552433732313a20746f6b656e20616c7265616479206d696e74656400000000600082015250565b60006127c4601c83611caf565b91506127cf8261278e565b602082019050919050565b600060208201905081810360008301526127f3816127b7565b9050919050565b600061280582611d5f565b915061281083611d5f565b9250827fffffffffffffffffffffffffffffffffffffffffffffffffffffffffffffffff0382111561284557612844612566565b5b828201905092915050565b600061285b82611d5f565b91507fffffffffffffffffffffffffffffffffffffffffffffffffffffffffffffffff82141561288e5761288d612566565b5b600182019050919050565b7f4e487b7100000000000000000000000000000000000000000000000000000000600052601260045260246000fd5b60006128d382611d5f565b91506128de83611d5f565b9250826128ee576128ed612899565b5b828204905092915050565b600061290482611d5f565b915061290f83611d5f565b92508261291f5761291e612899565b5b828206905092915050565b7f4e487b7100000000000000000000000000000000000000000000000000000000600052603260045260246000fd5b7f45524337323155524953746f726167653a2055524920736574206f66206e6f6e60008201527f6578697374656e7420746f6b656e000000000000000000000000000000000000602082015250565b60006129b5602e83611caf565b91506129c082612959565b604082019050919050565b600060208201905081810360008301526129e4816129a8565b9050919050565b7f4552433732313a207472616e736665722066726f6d20696e636f72726563742060008201527f6f776e6572000000000000000000000000000000000000000000000000000000602082015250565b6000612a47602583611caf565b9150612a52826129eb565b604082019050919050565b60006020820190508181036000830152612a7681612a3a565b9050919050565b7f4552433732313a207472616e7366657220746f20746865207a65726f2061646460008201527f7265737300000000000000000000000000000000000000000000000000000000602082015250565b6000612ad9602483611caf565b9150612ae482612a7d565b604082019050919050565b60006020820190508181036000830152612b0881612acc565b9050919050565b7f4552433732313a20617070726f766520746f2063616c6c657200000000000000600082015250565b6000612b45601983611caf565b9150612b5082612b0f565b602082019050919050565b60006020820190508181036000830152612b7481612b38565b9050919050565b7f4552433732313a207472616e7366657220746f206e6f6e20455243373231526560008201527f63656976657220696d706c656d656e7465720000000000000000000000000000602082015250565b6000612bd7603283611caf565b9150612be282612b7b565b604082019050919050565b60006020820190508181036000830152612c0681612bca565b9050919050565b600081519050919050565b600082825260208201905092915050565b6000612c3482612c0d565b612c3e8185612c18565b9350612c4e818560208601611cc0565b612c5781611cf3565b840191505092915050565b6000608082019050612c776000830187611df4565b612c846020830186611df4565b612c916040830185611e8a565b8181036060830152612ca38184612c29565b905095945050505050565b600081519050612cbd81611c15565b92915050565b600060208284031215612cd957612cd8611bdf565b5b6000612ce784828501612cae565b9150509291505056fea26469706673582212205acc8761c7f2a3d0d6af77763d45fb1f01baf6fbee75d98c25c88468edc2936b64736f6c6343000809003368747470733a2f2f697066732e696f2f697066732f516d624d694e397143334d655a7179763768705258414b54594e3659704b6a39526263703762396569774b3763592f",
    "linkReferences": {},
    "deployedLinkReferences": {}
}