{
  "_format": "hh-sol-artifact-1",
  "contractName": "APCollection",
  "sourceName": "contracts/APNFT.sol",
  "abi": [
    {
      "inputs": [],
      "stateMutability": "nonpayable",
      "type": "constructor"
    },
    {
      "anonymous": false,
      "inputs": [
        {
          "indexed": true,
          "internalType": "address",
          "name": "owner",
          "type": "address"
        },
        {
          "indexed": true,
          "internalType": "address",
          "name": "approved",
          "type": "address"
        },
        {
          "indexed": true,
          "internalType": "uint256",
          "name": "tokenId",
          "type": "uint256"
        }
      ],
      "name": "Approval",
      "type": "event"
    },
    {
      "anonymous": false,
      "inputs": [
        {
          "indexed": true,
          "internalType": "address",
          "name": "owner",
          "type": "address"
        },
        {
          "indexed": true,
          "internalType": "address",
          "name": "operator",
          "type": "address"
        },
        {
          "indexed": false,
          "internalType": "bool",
          "name": "approved",
          "type": "bool"
        }
      ],
      "name": "ApprovalForAll",
      "type": "event"
    },
    {
      "anonymous": false,
      "inputs": [
        {
          "indexed": false,
          "internalType": "address",
          "name": "_tokenOwner",
          "type": "address"
        },
        {
          "indexed": false,
          "internalType": "address",
          "name": "_to",
          "type": "address"
        },
        {
          "indexed": false,
          "internalType": "uint256",
          "name": "_tokenId",
          "type": "uint256"
        }
      ],
      "name": "TokenBurned",
      "type": "event"
    },
    {
      "anonymous": false,
      "inputs": [
        {
          "indexed": true,
          "internalType": "address",
          "name": "from",
          "type": "address"
        },
        {
          "indexed": true,
          "internalType": "address",
          "name": "to",
          "type": "address"
        },
        {
          "indexed": true,
          "internalType": "uint256",
          "name": "tokenId",
          "type": "uint256"
        }
      ],
      "name": "Transfer",
      "type": "event"
    },
    {
      "inputs": [
        {
          "internalType": "address",
          "name": "",
          "type": "address"
        }
      ],
      "name": "NFTOwner",
      "outputs": [
        {
          "internalType": "uint256",
          "name": "",
          "type": "uint256"
        }
      ],
      "stateMutability": "view",
      "type": "function"
    },
    {
      "inputs": [
        {
          "internalType": "uint256",
          "name": "",
          "type": "uint256"
        }
      ],
      "name": "_ownerOfNFT",
      "outputs": [
        {
          "internalType": "address",
          "name": "",
          "type": "address"
        }
      ],
      "stateMutability": "view",
      "type": "function"
    },
    {
      "inputs": [],
      "name": "admin",
      "outputs": [
        {
          "internalType": "address",
          "name": "",
          "type": "address"
        }
      ],
      "stateMutability": "view",
      "type": "function"
    },
    {
      "inputs": [
        {
          "internalType": "address",
          "name": "to",
          "type": "address"
        },
        {
          "internalType": "uint256",
          "name": "tokenId",
          "type": "uint256"
        }
      ],
      "name": "approve",
      "outputs": [],
      "stateMutability": "nonpayable",
      "type": "function"
    },
    {
      "inputs": [
        {
          "internalType": "address",
          "name": "owner",
          "type": "address"
        }
      ],
      "name": "balanceOf",
      "outputs": [
        {
          "internalType": "uint256",
          "name": "",
          "type": "uint256"
        }
      ],
      "stateMutability": "view",
      "type": "function"
    },
    {
      "inputs": [
        {
          "internalType": "uint256",
          "name": "tokenId",
          "type": "uint256"
        }
      ],
      "name": "burn",
      "outputs": [],
      "stateMutability": "nonpayable",
      "type": "function"
    },
    {
      "inputs": [
        {
          "internalType": "uint256",
          "name": "tokenId",
          "type": "uint256"
        }
      ],
      "name": "getApproved",
      "outputs": [
        {
          "internalType": "address",
          "name": "",
          "type": "address"
        }
      ],
      "stateMutability": "view",
      "type": "function"
    },
    {
      "inputs": [],
      "name": "getTokenCount",
      "outputs": [
        {
          "internalType": "uint256",
          "name": "",
          "type": "uint256"
        }
      ],
      "stateMutability": "view",
      "type": "function"
    },
    {
      "inputs": [
        {
          "internalType": "address",
          "name": "owner",
          "type": "address"
        },
        {
          "internalType": "address",
          "name": "operator",
          "type": "address"
        }
      ],
      "name": "isApprovedForAll",
      "outputs": [
        {
          "internalType": "bool",
          "name": "",
          "type": "bool"
        }
      ],
      "stateMutability": "view",
      "type": "function"
    },
    {
      "inputs": [],
      "name": "mint",
      "outputs": [
        {
          "internalType": "uint256",
          "name": "",
          "type": "uint256"
        }
      ],
      "stateMutability": "nonpayable",
      "type": "function"
    },
    {
      "inputs": [],
      "name": "name",
      "outputs": [
        {
          "internalType": "string",
          "name": "",
          "type": "string"
        }
      ],
      "stateMutability": "view",
      "type": "function"
    },
    {
      "inputs": [
        {
          "internalType": "uint256",
          "name": "tokenId",
          "type": "uint256"
        }
      ],
      "name": "ownerOf",
      "outputs": [
        {
          "internalType": "address",
          "name": "",
          "type": "address"
        }
      ],
      "stateMutability": "view",
      "type": "function"
    },
    {
      "inputs": [
        {
          "internalType": "address",
          "name": "from",
          "type": "address"
        },
        {
          "internalType": "address",
          "name": "to",
          "type": "address"
        },
        {
          "internalType": "uint256",
          "name": "tokenId",
          "type": "uint256"
        }
      ],
      "name": "safeTransferFrom",
      "outputs": [],
      "stateMutability": "nonpayable",
      "type": "function"
    },
    {
      "inputs": [
        {
          "internalType": "address",
          "name": "from",
          "type": "address"
        },
        {
          "internalType": "address",
          "name": "to",
          "type": "address"
        },
        {
          "internalType": "uint256",
          "name": "tokenId",
          "type": "uint256"
        },
        {
          "internalType": "bytes",
          "name": "data",
          "type": "bytes"
        }
      ],
      "name": "safeTransferFrom",
      "outputs": [],
      "stateMutability": "nonpayable",
      "type": "function"
    },
    {
      "inputs": [
        {
          "internalType": "address",
          "name": "operator",
          "type": "address"
        },
        {
          "internalType": "bool",
          "name": "approved",
          "type": "bool"
        }
      ],
      "name": "setApprovalForAll",
      "outputs": [],
      "stateMutability": "nonpayable",
      "type": "function"
    },
    {
      "inputs": [
        {
          "internalType": "bytes4",
          "name": "interfaceId",
          "type": "bytes4"
        }
      ],
      "name": "supportsInterface",
      "outputs": [
        {
          "internalType": "bool",
          "name": "",
          "type": "bool"
        }
      ],
      "stateMutability": "view",
      "type": "function"
    },
    {
      "inputs": [],
      "name": "symbol",
      "outputs": [
        {
          "internalType": "string",
          "name": "",
          "type": "string"
        }
      ],
      "stateMutability": "view",
      "type": "function"
    },
    {
      "inputs": [],
      "name": "tokenCount",
      "outputs": [
        {
          "internalType": "uint256",
          "name": "",
          "type": "uint256"
        }
      ],
      "stateMutability": "view",
      "type": "function"
    },
    {
      "inputs": [
        {
          "internalType": "uint256",
          "name": "tokenId",
          "type": "uint256"
        }
      ],
      "name": "tokenURI",
      "outputs": [
        {
          "internalType": "string",
          "name": "",
          "type": "string"
        }
      ],
      "stateMutability": "view",
      "type": "function"
    },
    {
      "inputs": [
        {
          "internalType": "address",
          "name": "from",
          "type": "address"
        },
        {
          "internalType": "address",
          "name": "to",
          "type": "address"
        },
        {
          "internalType": "uint256",
          "name": "tokenId",
          "type": "uint256"
        }
      ],
      "name": "transferFrom",
      "outputs": [],
      "stateMutability": "nonpayable",
      "type": "function"
    }
  ],
  "bytecode": "0x60806040526040518060800160405280604481526020016200308860449139600a9080519060200190620000359291906200012b565b503480156200004357600080fd5b506040518060400160405280600981526020017f414920416c69656e7300000000000000000000000000000000000000000000008152506040518060400160405280600381526020017f41494100000000000000000000000000000000000000000000000000000000008152508160009080519060200190620000c89291906200012b565b508060019080519060200190620000e19291906200012b565b50505033600860006101000a81548173ffffffffffffffffffffffffffffffffffffffff021916908373ffffffffffffffffffffffffffffffffffffffff16021790555062000240565b82805462000139906200020a565b90600052602060002090601f0160209004810192826200015d5760008555620001a9565b82601f106200017857805160ff1916838001178555620001a9565b82800160010185558215620001a9579182015b82811115620001a85782518255916020019190600101906200018b565b5b509050620001b89190620001bc565b5090565b5b80821115620001d7576000816000905550600101620001bd565b5090565b7f4e487b7100000000000000000000000000000000000000000000000000000000600052602260045260246000fd5b600060028204905060018216806200022357607f821691505b602082108114156200023a5762000239620001db565b5b50919050565b612e3880620002506000396000f3fe608060405234801561001057600080fd5b506004361061012c5760003560e01c806370a08231116100ad578063a22cb46511610071578063a22cb46514610357578063b88d4fde14610373578063c87b56dd1461038f578063e985e9c5146103bf578063f851a440146103ef5761012c565b806370a082311461029d57806377edcb6a146102cd57806378a89567146102fd57806395d89b411461031b5780639f181b5e146103395761012c565b806323b872dd116100f457806323b872dd146101e957806342842e0e1461020557806342966c681461022157806353d927d81461023d5780636352211e1461026d5761012c565b806301ffc9a71461013157806306fdde0314610161578063081812fc1461017f578063095ea7b3146101af5780631249c58b146101cb575b600080fd5b61014b60048036038101906101469190611d29565b61040d565b6040516101589190611d71565b60405180910390f35b6101696104ef565b6040516101769190611e25565b60405180910390f35b61019960048036038101906101949190611e7d565b610581565b6040516101a69190611eeb565b60405180910390f35b6101c960048036038101906101c49190611f32565b6105c7565b005b6101d36106df565b6040516101e09190611f81565b60405180910390f35b61020360048036038101906101fe9190611f9c565b6107fb565b005b61021f600480360381019061021a9190611f9c565b61085b565b005b61023b60048036038101906102369190611e7d565b61087b565b005b61025760048036038101906102529190611fef565b6109ff565b6040516102649190611f81565b60405180910390f35b61028760048036038101906102829190611e7d565b610a17565b6040516102949190611eeb565b60405180910390f35b6102b760048036038101906102b29190611fef565b610ac9565b6040516102c49190611f81565b60405180910390f35b6102e760048036038101906102e29190611e7d565b610b81565b6040516102f49190611eeb565b60405180910390f35b610305610bb4565b6040516103129190611f81565b60405180910390f35b610323610bbe565b6040516103309190611e25565b60405180910390f35b610341610c50565b60405161034e9190611f81565b60405180910390f35b610371600480360381019061036c9190612048565b610c56565b005b61038d600480360381019061038891906121bd565b610c6c565b005b6103a960048036038101906103a49190611e7d565b610cce565b6040516103b69190611e25565b60405180910390f35b6103d960048036038101906103d49190612240565b610de1565b6040516103e69190611d71565b60405180910390f35b6103f7610e75565b6040516104049190611eeb565b60405180910390f35b60007f80ac58cd000000000000000000000000000000000000000000000000000000007bffffffffffffffffffffffffffffffffffffffffffffffffffffffff1916827bffffffffffffffffffffffffffffffffffffffffffffffffffffffff191614806104d857507f5b5e139f000000000000000000000000000000000000000000000000000000007bffffffffffffffffffffffffffffffffffffffffffffffffffffffff1916827bffffffffffffffffffffffffffffffffffffffffffffffffffffffff1916145b806104e857506104e782610e9b565b5b9050919050565b6060600080546104fe906122af565b80601f016020809104026020016040519081016040528092919081815260200182805461052a906122af565b80156105775780601f1061054c57610100808354040283529160200191610577565b820191906000526020600020905b81548152906001019060200180831161055a57829003601f168201915b5050505050905090565b600061058c82610f05565b6004600083815260200190815260200160002060009054906101000a900473ffffffffffffffffffffffffffffffffffffffff169050919050565b60006105d282610a17565b90508073ffffffffffffffffffffffffffffffffffffffff168373ffffffffffffffffffffffffffffffffffffffff161415610643576040517f08c379a000000000000000000000000000000000000000000000000000000000815260040161063a90612353565b60405180910390fd5b8073ffffffffffffffffffffffffffffffffffffffff16610662610f50565b73ffffffffffffffffffffffffffffffffffffffff16148061069157506106908161068b610f50565b610de1565b5b6106d0576040517f08c379a00000000000000000000000000000000000000000000000000000000081526004016106c7906123e5565b60405180910390fd5b6106da8383610f58565b505050565b60006106eb6007611011565b600960008154809291906106fe90612434565b9190505550600061070f6007611027565b905061071b3382611035565b33600b600083815260200190815260200160002060006101000a81548173ffffffffffffffffffffffffffffffffffffffff021916908373ffffffffffffffffffffffffffffffffffffffff16021790555080600c60003373ffffffffffffffffffffffffffffffffffffffff1673ffffffffffffffffffffffffffffffffffffffff168152602001908152602001600020819055506000600a6107be8361120f565b6040516020016107cf929190612599565b60405160208183030381529060405290506107ea8282611370565b6107f3816113e4565b819250505090565b61080c610806610f50565b8261147d565b61084b576040517f08c379a00000000000000000000000000000000000000000000000000000000081526004016108429061263a565b60405180910390fd5b610856838383611512565b505050565b61087683838360405180602001604052806000815250610c6c565b505050565b600b600082815260200190815260200160002060009054906101000a900473ffffffffffffffffffffffffffffffffffffffff1673ffffffffffffffffffffffffffffffffffffffff163373ffffffffffffffffffffffffffffffffffffffff161461091c576040517f08c379a0000000000000000000000000000000000000000000000000000000008152600401610913906126a6565b60405180910390fd5b600b600082815260200190815260200160002060006101000a81549073ffffffffffffffffffffffffffffffffffffffff021916905580600c60003373ffffffffffffffffffffffffffffffffffffffff1673ffffffffffffffffffffffffffffffffffffffff16815260200190815260200160002060008282546109a191906126c6565b92505081905550600960008154809291906109bb906126fa565b91905055507fbfa41556980d157c24e8632dbb78958f8759a86b4acdea421f93dc7259fb55db336000836040516109f493929190612724565b60405180910390a150565b600c6020528060005260406000206000915090505481565b6000806002600084815260200190815260200160002060009054906101000a900473ffffffffffffffffffffffffffffffffffffffff169050600073ffffffffffffffffffffffffffffffffffffffff168173ffffffffffffffffffffffffffffffffffffffff161415610ac0576040517f08c379a0000000000000000000000000000000000000000000000000000000008152600401610ab7906127a7565b60405180910390fd5b80915050919050565b60008073ffffffffffffffffffffffffffffffffffffffff168273ffffffffffffffffffffffffffffffffffffffff161415610b3a576040517f08c379a0000000000000000000000000000000000000000000000000000000008152600401610b3190612839565b60405180910390fd5b600360008373ffffffffffffffffffffffffffffffffffffffff1673ffffffffffffffffffffffffffffffffffffffff168152602001908152602001600020549050919050565b600b6020528060005260406000206000915054906101000a900473ffffffffffffffffffffffffffffffffffffffff1681565b6000600954905090565b606060018054610bcd906122af565b80601f0160208091040260200160405190810160405280929190818152602001828054610bf9906122af565b8015610c465780601f10610c1b57610100808354040283529160200191610c46565b820191906000526020600020905b815481529060010190602001808311610c2957829003601f168201915b5050505050905090565b60095481565b610c68610c61610f50565b8383611779565b5050565b610c7d610c77610f50565b8361147d565b610cbc576040517f08c379a0000000000000000000000000000000000000000000000000000000008152600401610cb39061263a565b60405180910390fd5b610cc8848484846118e6565b50505050565b6060610cd982610f05565b6000600660008481526020019081526020016000208054610cf9906122af565b80601f0160208091040260200160405190810160405280929190818152602001828054610d25906122af565b8015610d725780601f10610d4757610100808354040283529160200191610d72565b820191906000526020600020905b815481529060010190602001808311610d5557829003601f168201915b505050505090506000610d83611942565b9050600081511415610d99578192505050610ddc565b600082511115610dce578082604051602001610db6929190612859565b60405160208183030381529060405292505050610ddc565b610dd784611959565b925050505b919050565b6000600560008473ffffffffffffffffffffffffffffffffffffffff1673ffffffffffffffffffffffffffffffffffffffff16815260200190815260200160002060008373ffffffffffffffffffffffffffffffffffffffff1673ffffffffffffffffffffffffffffffffffffffff16815260200190815260200160002060009054906101000a900460ff16905092915050565b600860009054906101000a900473ffffffffffffffffffffffffffffffffffffffff1681565b60007f01ffc9a7000000000000000000000000000000000000000000000000000000007bffffffffffffffffffffffffffffffffffffffffffffffffffffffff1916827bffffffffffffffffffffffffffffffffffffffffffffffffffffffff1916149050919050565b610f0e816119c1565b610f4d576040517f08c379a0000000000000000000000000000000000000000000000000000000008152600401610f44906127a7565b60405180910390fd5b50565b600033905090565b816004600083815260200190815260200160002060006101000a81548173ffffffffffffffffffffffffffffffffffffffff021916908373ffffffffffffffffffffffffffffffffffffffff160217905550808273ffffffffffffffffffffffffffffffffffffffff16610fcb83610a17565b73ffffffffffffffffffffffffffffffffffffffff167f8c5be1e5ebec7d5bd14f71427d1e84f3dd0314c0f7b2291e5b200ac8c7c3b92560405160405180910390a45050565b6001816000016000828254019250508190555050565b600081600001549050919050565b600073ffffffffffffffffffffffffffffffffffffffff168273ffffffffffffffffffffffffffffffffffffffff1614156110a5576040517f08c379a000000000000000000000000000000000000000000000000000000000815260040161109c906128c9565b60405180910390fd5b6110ae816119c1565b156110ee576040517f08c379a00000000000000000000000000000000000000000000000000000000081526004016110e590612935565b60405180910390fd5b6110fa60008383611a2d565b6001600360008473ffffffffffffffffffffffffffffffffffffffff1673ffffffffffffffffffffffffffffffffffffffff168152602001908152602001600020600082825461114a9190612955565b92505081905550816002600083815260200190815260200160002060006101000a81548173ffffffffffffffffffffffffffffffffffffffff021916908373ffffffffffffffffffffffffffffffffffffffff160217905550808273ffffffffffffffffffffffffffffffffffffffff16600073ffffffffffffffffffffffffffffffffffffffff167fddf252ad1be2c89b69c2b068fc378daa952ba7f163c4a11628f55a4df523b3ef60405160405180910390a461120b60008383611a32565b5050565b60606000821415611257576040518060400160405280600181526020017f3000000000000000000000000000000000000000000000000000000000000000815250905061136b565b600082905060005b6000821461128957808061127290612434565b915050600a8261128291906129da565b915061125f565b60008167ffffffffffffffff8111156112a5576112a4612092565b5b6040519080825280601f01601f1916602001820160405280156112d75781602001600182028036833780820191505090505b5090505b60008514611364576001826112f091906126c6565b9150600a856112ff9190612a0b565b603061130b9190612955565b60f81b81838151811061132157611320612a3c565b5b60200101907effffffffffffffffffffffffffffffffffffffffffffffffffffffffffffff1916908160001a905350600a8561135d91906129da565b94506112db565b8093505050505b919050565b611379826119c1565b6113b8576040517f08c379a00000000000000000000000000000000000000000000000000000000081526004016113af90612add565b60405180910390fd5b806006600084815260200190815260200160002090805190602001906113df929190611c1a565b505050565b61147a816040516024016113f89190611e25565b6040516020818303038152906040527f41304fac000000000000000000000000000000000000000000000000000000007bffffffffffffffffffffffffffffffffffffffffffffffffffffffff19166020820180517bffffffffffffffffffffffffffffffffffffffffffffffffffffffff8381831617835250505050611a37565b50565b60008061148983610a17565b90508073ffffffffffffffffffffffffffffffffffffffff168473ffffffffffffffffffffffffffffffffffffffff1614806114cb57506114ca8185610de1565b5b8061150957508373ffffffffffffffffffffffffffffffffffffffff166114f184610581565b73ffffffffffffffffffffffffffffffffffffffff16145b91505092915050565b8273ffffffffffffffffffffffffffffffffffffffff1661153282610a17565b73ffffffffffffffffffffffffffffffffffffffff1614611588576040517f08c379a000000000000000000000000000000000000000000000000000000000815260040161157f90612b6f565b60405180910390fd5b600073ffffffffffffffffffffffffffffffffffffffff168273ffffffffffffffffffffffffffffffffffffffff1614156115f8576040517f08c379a00000000000000000000000000000000000000000000000000000000081526004016115ef90612c01565b60405180910390fd5b611603838383611a2d565b61160e600082610f58565b6001600360008573ffffffffffffffffffffffffffffffffffffffff1673ffffffffffffffffffffffffffffffffffffffff168152602001908152602001600020600082825461165e91906126c6565b925050819055506001600360008473ffffffffffffffffffffffffffffffffffffffff1673ffffffffffffffffffffffffffffffffffffffff16815260200190815260200160002060008282546116b59190612955565b92505081905550816002600083815260200190815260200160002060006101000a81548173ffffffffffffffffffffffffffffffffffffffff021916908373ffffffffffffffffffffffffffffffffffffffff160217905550808273ffffffffffffffffffffffffffffffffffffffff168473ffffffffffffffffffffffffffffffffffffffff167fddf252ad1be2c89b69c2b068fc378daa952ba7f163c4a11628f55a4df523b3ef60405160405180910390a4611774838383611a32565b505050565b8173ffffffffffffffffffffffffffffffffffffffff168373ffffffffffffffffffffffffffffffffffffffff1614156117e8576040517f08c379a00000000000000000000000000000000000000000000000000000000081526004016117df90612c6d565b60405180910390fd5b80600560008573ffffffffffffffffffffffffffffffffffffffff1673ffffffffffffffffffffffffffffffffffffffff16815260200190815260200160002060008473ffffffffffffffffffffffffffffffffffffffff1673ffffffffffffffffffffffffffffffffffffffff16815260200190815260200160002060006101000a81548160ff0219169083151502179055508173ffffffffffffffffffffffffffffffffffffffff168373ffffffffffffffffffffffffffffffffffffffff167f17307eab39ab6107e8899845ad3d59bd9653f200f220920489ca2b5937696c31836040516118d99190611d71565b60405180910390a3505050565b6118f1848484611512565b6118fd84848484611a60565b61193c576040517f08c379a000000000000000000000000000000000000000000000000000000000815260040161193390612cff565b60405180910390fd5b50505050565b606060405180602001604052806000815250905090565b606061196482610f05565b600061196e611942565b9050600081511161198e57604051806020016040528060008152506119b9565b806119988461120f565b6040516020016119a9929190612859565b6040516020818303038152906040525b915050919050565b60008073ffffffffffffffffffffffffffffffffffffffff166002600084815260200190815260200160002060009054906101000a900473ffffffffffffffffffffffffffffffffffffffff1673ffffffffffffffffffffffffffffffffffffffff1614159050919050565b505050565b505050565b60008151905060006a636f6e736f6c652e6c6f679050602083016000808483855afa5050505050565b6000611a818473ffffffffffffffffffffffffffffffffffffffff16611bf7565b15611bea578373ffffffffffffffffffffffffffffffffffffffff1663150b7a02611aaa610f50565b8786866040518563ffffffff1660e01b8152600401611acc9493929190612d74565b602060405180830381600087803b158015611ae657600080fd5b505af1925050508015611b1757506040513d601f19601f82011682018060405250810190611b149190612dd5565b60015b611b9a573d8060008114611b47576040519150601f19603f3d011682016040523d82523d6000602084013e611b4c565b606091505b50600081511415611b92576040517f08c379a0000000000000000000000000000000000000000000000000000000008152600401611b8990612cff565b60405180910390fd5b805181602001fd5b63150b7a0260e01b7bffffffffffffffffffffffffffffffffffffffffffffffffffffffff1916817bffffffffffffffffffffffffffffffffffffffffffffffffffffffff191614915050611bef565b600190505b949350505050565b6000808273ffffffffffffffffffffffffffffffffffffffff163b119050919050565b828054611c26906122af565b90600052602060002090601f016020900481019282611c485760008555611c8f565b82601f10611c6157805160ff1916838001178555611c8f565b82800160010185558215611c8f579182015b82811115611c8e578251825591602001919060010190611c73565b5b509050611c9c9190611ca0565b5090565b5b80821115611cb9576000816000905550600101611ca1565b5090565b6000604051905090565b600080fd5b600080fd5b60007fffffffff0000000000000000000000000000000000000000000000000000000082169050919050565b611d0681611cd1565b8114611d1157600080fd5b50565b600081359050611d2381611cfd565b92915050565b600060208284031215611d3f57611d3e611cc7565b5b6000611d4d84828501611d14565b91505092915050565b60008115159050919050565b611d6b81611d56565b82525050565b6000602082019050611d866000830184611d62565b92915050565b600081519050919050565b600082825260208201905092915050565b60005b83811015611dc6578082015181840152602081019050611dab565b83811115611dd5576000848401525b50505050565b6000601f19601f8301169050919050565b6000611df782611d8c565b611e018185611d97565b9350611e11818560208601611da8565b611e1a81611ddb565b840191505092915050565b60006020820190508181036000830152611e3f8184611dec565b905092915050565b6000819050919050565b611e5a81611e47565b8114611e6557600080fd5b50565b600081359050611e7781611e51565b92915050565b600060208284031215611e9357611e92611cc7565b5b6000611ea184828501611e68565b91505092915050565b600073ffffffffffffffffffffffffffffffffffffffff82169050919050565b6000611ed582611eaa565b9050919050565b611ee581611eca565b82525050565b6000602082019050611f006000830184611edc565b92915050565b611f0f81611eca565b8114611f1a57600080fd5b50565b600081359050611f2c81611f06565b92915050565b60008060408385031215611f4957611f48611cc7565b5b6000611f5785828601611f1d565b9250506020611f6885828601611e68565b9150509250929050565b611f7b81611e47565b82525050565b6000602082019050611f966000830184611f72565b92915050565b600080600060608486031215611fb557611fb4611cc7565b5b6000611fc386828701611f1d565b9350506020611fd486828701611f1d565b9250506040611fe586828701611e68565b9150509250925092565b60006020828403121561200557612004611cc7565b5b600061201384828501611f1d565b91505092915050565b61202581611d56565b811461203057600080fd5b50565b6000813590506120428161201c565b92915050565b6000806040838503121561205f5761205e611cc7565b5b600061206d85828601611f1d565b925050602061207e85828601612033565b9150509250929050565b600080fd5b600080fd5b7f4e487b7100000000000000000000000000000000000000000000000000000000600052604160045260246000fd5b6120ca82611ddb565b810181811067ffffffffffffffff821117156120e9576120e8612092565b5b80604052505050565b60006120fc611cbd565b905061210882826120c1565b919050565b600067ffffffffffffffff82111561212857612127612092565b5b61213182611ddb565b9050602081019050919050565b82818337600083830152505050565b600061216061215b8461210d565b6120f2565b90508281526020810184848401111561217c5761217b61208d565b5b61218784828561213e565b509392505050565b600082601f8301126121a4576121a3612088565b5b81356121b484826020860161214d565b91505092915050565b600080600080608085870312156121d7576121d6611cc7565b5b60006121e587828801611f1d565b94505060206121f687828801611f1d565b935050604061220787828801611e68565b925050606085013567ffffffffffffffff81111561222857612227611ccc565b5b6122348782880161218f565b91505092959194509250565b6000806040838503121561225757612256611cc7565b5b600061226585828601611f1d565b925050602061227685828601611f1d565b9150509250929050565b7f4e487b7100000000000000000000000000000000000000000000000000000000600052602260045260246000fd5b600060028204905060018216806122c757607f821691505b602082108114156122db576122da612280565b5b50919050565b7f4552433732313a20617070726f76616c20746f2063757272656e74206f776e6560008201527f7200000000000000000000000000000000000000000000000000000000000000602082015250565b600061233d602183611d97565b9150612348826122e1565b604082019050919050565b6000602082019050818103600083015261236c81612330565b9050919050565b7f4552433732313a20617070726f76652063616c6c6572206973206e6f7420746f60008201527f6b656e206f776e6572206e6f7220617070726f76656420666f7220616c6c0000602082015250565b60006123cf603e83611d97565b91506123da82612373565b604082019050919050565b600060208201905081810360008301526123fe816123c2565b9050919050565b7f4e487b7100000000000000000000000000000000000000000000000000000000600052601160045260246000fd5b600061243f82611e47565b91507fffffffffffffffffffffffffffffffffffffffffffffffffffffffffffffffff82141561247257612471612405565b5b600182019050919050565b600081905092915050565b60008190508160005260206000209050919050565b600081546124aa816122af565b6124b4818661247d565b945060018216600081146124cf57600181146124e057612513565b60ff19831686528186019350612513565b6124e985612488565b60005b8381101561250b578154818901526001820191506020810190506124ec565b838801955050505b50505092915050565b600061252782611d8c565b612531818561247d565b9350612541818560208601611da8565b80840191505092915050565b7f2e6a736f6e000000000000000000000000000000000000000000000000000000600082015250565b600061258360058361247d565b915061258e8261254d565b600582019050919050565b60006125a5828561249d565b91506125b1828461251c565b91506125bc82612576565b91508190509392505050565b7f4552433732313a2063616c6c6572206973206e6f7420746f6b656e206f776e6560008201527f72206e6f7220617070726f766564000000000000000000000000000000000000602082015250565b6000612624602e83611d97565b915061262f826125c8565b604082019050919050565b6000602082019050818103600083015261265381612617565b9050919050565b7f6e6f74206f776e6572206f6620746f6b656e0000000000000000000000000000600082015250565b6000612690601283611d97565b915061269b8261265a565b602082019050919050565b600060208201905081810360008301526126bf81612683565b9050919050565b60006126d182611e47565b91506126dc83611e47565b9250828210156126ef576126ee612405565b5b828203905092915050565b600061270582611e47565b9150600082141561271957612718612405565b5b600182039050919050565b60006060820190506127396000830186611edc565b6127466020830185611edc565b6127536040830184611f72565b949350505050565b7f4552433732313a20696e76616c696420746f6b656e2049440000000000000000600082015250565b6000612791601883611d97565b915061279c8261275b565b602082019050919050565b600060208201905081810360008301526127c081612784565b9050919050565b7f4552433732313a2061646472657373207a65726f206973206e6f74206120766160008201527f6c6964206f776e65720000000000000000000000000000000000000000000000602082015250565b6000612823602983611d97565b915061282e826127c7565b604082019050919050565b6000602082019050818103600083015261285281612816565b9050919050565b6000612865828561251c565b9150612871828461251c565b91508190509392505050565b7f4552433732313a206d696e7420746f20746865207a65726f2061646472657373600082015250565b60006128b3602083611d97565b91506128be8261287d565b602082019050919050565b600060208201905081810360008301526128e2816128a6565b9050919050565b7f4552433732313a20746f6b656e20616c7265616479206d696e74656400000000600082015250565b600061291f601c83611d97565b915061292a826128e9565b602082019050919050565b6000602082019050818103600083015261294e81612912565b9050919050565b600061296082611e47565b915061296b83611e47565b9250827fffffffffffffffffffffffffffffffffffffffffffffffffffffffffffffffff038211156129a05761299f612405565b5b828201905092915050565b7f4e487b7100000000000000000000000000000000000000000000000000000000600052601260045260246000fd5b60006129e582611e47565b91506129f083611e47565b925082612a00576129ff6129ab565b5b828204905092915050565b6000612a1682611e47565b9150612a2183611e47565b925082612a3157612a306129ab565b5b828206905092915050565b7f4e487b7100000000000000000000000000000000000000000000000000000000600052603260045260246000fd5b7f45524337323155524953746f726167653a2055524920736574206f66206e6f6e60008201527f6578697374656e7420746f6b656e000000000000000000000000000000000000602082015250565b6000612ac7602e83611d97565b9150612ad282612a6b565b604082019050919050565b60006020820190508181036000830152612af681612aba565b9050919050565b7f4552433732313a207472616e736665722066726f6d20696e636f72726563742060008201527f6f776e6572000000000000000000000000000000000000000000000000000000602082015250565b6000612b59602583611d97565b9150612b6482612afd565b604082019050919050565b60006020820190508181036000830152612b8881612b4c565b9050919050565b7f4552433732313a207472616e7366657220746f20746865207a65726f2061646460008201527f7265737300000000000000000000000000000000000000000000000000000000602082015250565b6000612beb602483611d97565b9150612bf682612b8f565b604082019050919050565b60006020820190508181036000830152612c1a81612bde565b9050919050565b7f4552433732313a20617070726f766520746f2063616c6c657200000000000000600082015250565b6000612c57601983611d97565b9150612c6282612c21565b602082019050919050565b60006020820190508181036000830152612c8681612c4a565b9050919050565b7f4552433732313a207472616e7366657220746f206e6f6e20455243373231526560008201527f63656976657220696d706c656d656e7465720000000000000000000000000000602082015250565b6000612ce9603283611d97565b9150612cf482612c8d565b604082019050919050565b60006020820190508181036000830152612d1881612cdc565b9050919050565b600081519050919050565b600082825260208201905092915050565b6000612d4682612d1f565b612d508185612d2a565b9350612d60818560208601611da8565b612d6981611ddb565b840191505092915050565b6000608082019050612d896000830187611edc565b612d966020830186611edc565b612da36040830185611f72565b8181036060830152612db58184612d3b565b905095945050505050565b600081519050612dcf81611cfd565b92915050565b600060208284031215612deb57612dea611cc7565b5b6000612df984828501612dc0565b9150509291505056fea26469706673582212208107c8b0ef77a730427612f0f2adc3e6e059e7de8a716c5877a2d67b383c1b3764736f6c6343000809003368747470733a2f2f697066732e696f2f697066732f516d624d694e397143334d655a7179763768705258414b54594e3659704b6a39526263703762396569774b3763592f",
  "linkReferences": {},
  "deployedLinkReferences": {}
}