{
  "_format": "hh-sol-artifact-1",
  "contractName": "APCollection",
  "sourceName": "contracts/APNFT.sol",
  "abi": [
    {
      "inputs": [],
      "stateMutability": "nonpayable",
      "type": "constructor"
    },
    {
      "anonymous": false,
      "inputs": [
        {
          "indexed": true,
          "internalType": "address",
          "name": "owner",
          "type": "address"
        },
        {
          "indexed": true,
          "internalType": "address",
          "name": "approved",
          "type": "address"
        },
        {
          "indexed": true,
          "internalType": "uint256",
          "name": "tokenId",
          "type": "uint256"
        }
      ],
      "name": "Approval",
      "type": "event"
    },
    {
      "anonymous": false,
      "inputs": [
        {
          "indexed": true,
          "internalType": "address",
          "name": "owner",
          "type": "address"
        },
        {
          "indexed": true,
          "internalType": "address",
          "name": "operator",
          "type": "address"
        },
        {
          "indexed": false,
          "internalType": "bool",
          "name": "approved",
          "type": "bool"
        }
      ],
      "name": "ApprovalForAll",
      "type": "event"
    },
    {
      "anonymous": false,
      "inputs": [
        {
          "indexed": false,
          "internalType": "address",
          "name": "_tokenOwner",
          "type": "address"
        },
        {
          "indexed": false,
          "internalType": "address",
          "name": "_to",
          "type": "address"
        },
        {
          "indexed": false,
          "internalType": "uint256",
          "name": "_tokenId",
          "type": "uint256"
        }
      ],
      "name": "TokenBurned",
      "type": "event"
    },
    {
      "anonymous": false,
      "inputs": [
        {
          "indexed": true,
          "internalType": "address",
          "name": "from",
          "type": "address"
        },
        {
          "indexed": true,
          "internalType": "address",
          "name": "to",
          "type": "address"
        },
        {
          "indexed": true,
          "internalType": "uint256",
          "name": "tokenId",
          "type": "uint256"
        }
      ],
      "name": "Transfer",
      "type": "event"
    },
    {
      "inputs": [
        {
          "internalType": "address",
          "name": "",
          "type": "address"
        }
      ],
      "name": "NFTOwner",
      "outputs": [
        {
          "internalType": "uint256",
          "name": "",
          "type": "uint256"
        }
      ],
      "stateMutability": "view",
      "type": "function"
    },
    {
      "inputs": [
        {
          "internalType": "uint256",
          "name": "",
          "type": "uint256"
        }
      ],
      "name": "_ownerOfNFT",
      "outputs": [
        {
          "internalType": "address",
          "name": "",
          "type": "address"
        }
      ],
      "stateMutability": "view",
      "type": "function"
    },
    {
      "inputs": [],
      "name": "admin",
      "outputs": [
        {
          "internalType": "address",
          "name": "",
          "type": "address"
        }
      ],
      "stateMutability": "view",
      "type": "function"
    },
    {
      "inputs": [
        {
          "internalType": "address",
          "name": "to",
          "type": "address"
        },
        {
          "internalType": "uint256",
          "name": "tokenId",
          "type": "uint256"
        }
      ],
      "name": "approve",
      "outputs": [],
      "stateMutability": "nonpayable",
      "type": "function"
    },
    {
      "inputs": [
        {
          "internalType": "address",
          "name": "owner",
          "type": "address"
        }
      ],
      "name": "balanceOf",
      "outputs": [
        {
          "internalType": "uint256",
          "name": "",
          "type": "uint256"
        }
      ],
      "stateMutability": "view",
      "type": "function"
    },
    {
      "inputs": [
        {
          "internalType": "uint256",
          "name": "tokenId",
          "type": "uint256"
        }
      ],
      "name": "burn",
      "outputs": [],
      "stateMutability": "nonpayable",
      "type": "function"
    },
    {
      "inputs": [
        {
          "internalType": "uint256",
          "name": "tokenId",
          "type": "uint256"
        }
      ],
      "name": "getApproved",
      "outputs": [
        {
          "internalType": "address",
          "name": "",
          "type": "address"
        }
      ],
      "stateMutability": "view",
      "type": "function"
    },
    {
      "inputs": [],
      "name": "getTokenCount",
      "outputs": [
        {
          "internalType": "uint256",
          "name": "",
          "type": "uint256"
        }
      ],
      "stateMutability": "view",
      "type": "function"
    },
    {
      "inputs": [
        {
          "internalType": "address",
          "name": "owner",
          "type": "address"
        },
        {
          "internalType": "address",
          "name": "operator",
          "type": "address"
        }
      ],
      "name": "isApprovedForAll",
      "outputs": [
        {
          "internalType": "bool",
          "name": "",
          "type": "bool"
        }
      ],
      "stateMutability": "view",
      "type": "function"
    },
    {
      "inputs": [],
      "name": "mint",
      "outputs": [
        {
          "internalType": "uint256",
          "name": "",
          "type": "uint256"
        }
      ],
      "stateMutability": "nonpayable",
      "type": "function"
    },
    {
      "inputs": [],
      "name": "name",
      "outputs": [
        {
          "internalType": "string",
          "name": "",
          "type": "string"
        }
      ],
      "stateMutability": "view",
      "type": "function"
    },
    {
      "inputs": [
        {
          "internalType": "uint256",
          "name": "tokenId",
          "type": "uint256"
        }
      ],
      "name": "ownerOf",
      "outputs": [
        {
          "internalType": "address",
          "name": "",
          "type": "address"
        }
      ],
      "stateMutability": "view",
      "type": "function"
    },
    {
      "inputs": [
        {
          "internalType": "address",
          "name": "from",
          "type": "address"
        },
        {
          "internalType": "address",
          "name": "to",
          "type": "address"
        },
        {
          "internalType": "uint256",
          "name": "tokenId",
          "type": "uint256"
        }
      ],
      "name": "safeTransferFrom",
      "outputs": [],
      "stateMutability": "nonpayable",
      "type": "function"
    },
    {
      "inputs": [
        {
          "internalType": "address",
          "name": "from",
          "type": "address"
        },
        {
          "internalType": "address",
          "name": "to",
          "type": "address"
        },
        {
          "internalType": "uint256",
          "name": "tokenId",
          "type": "uint256"
        },
        {
          "internalType": "bytes",
          "name": "data",
          "type": "bytes"
        }
      ],
      "name": "safeTransferFrom",
      "outputs": [],
      "stateMutability": "nonpayable",
      "type": "function"
    },
    {
      "inputs": [
        {
          "internalType": "address",
          "name": "operator",
          "type": "address"
        },
        {
          "internalType": "bool",
          "name": "approved",
          "type": "bool"
        }
      ],
      "name": "setApprovalForAll",
      "outputs": [],
      "stateMutability": "nonpayable",
      "type": "function"
    },
    {
      "inputs": [
        {
          "internalType": "bytes4",
          "name": "interfaceId",
          "type": "bytes4"
        }
      ],
      "name": "supportsInterface",
      "outputs": [
        {
          "internalType": "bool",
          "name": "",
          "type": "bool"
        }
      ],
      "stateMutability": "view",
      "type": "function"
    },
    {
      "inputs": [],
      "name": "symbol",
      "outputs": [
        {
          "internalType": "string",
          "name": "",
          "type": "string"
        }
      ],
      "stateMutability": "view",
      "type": "function"
    },
    {
      "inputs": [],
      "name": "tokenCount",
      "outputs": [
        {
          "internalType": "uint256",
          "name": "",
          "type": "uint256"
        }
      ],
      "stateMutability": "view",
      "type": "function"
    },
    {
      "inputs": [
        {
          "internalType": "uint256",
          "name": "tokenId",
          "type": "uint256"
        }
      ],
      "name": "tokenURI",
      "outputs": [
        {
          "internalType": "string",
          "name": "",
          "type": "string"
        }
      ],
      "stateMutability": "view",
      "type": "function"
    },
    {
      "inputs": [
        {
          "internalType": "address",
          "name": "from",
          "type": "address"
        },
        {
          "internalType": "address",
          "name": "to",
          "type": "address"
        },
        {
          "internalType": "uint256",
          "name": "tokenId",
          "type": "uint256"
        }
      ],
      "name": "transferFrom",
      "outputs": [],
      "stateMutability": "nonpayable",
      "type": "function"
    }
  ],
  "bytecode": "0x60806040526040518060800160405280604481526020016200303260449139600a9080519060200190620000359291906200012b565b503480156200004357600080fd5b506040518060400160405280600981526020017f414920416c69656e7300000000000000000000000000000000000000000000008152506040518060400160405280600381526020017f41494100000000000000000000000000000000000000000000000000000000008152508160009080519060200190620000c89291906200012b565b508060019080519060200190620000e19291906200012b565b50505033600860006101000a81548173ffffffffffffffffffffffffffffffffffffffff021916908373ffffffffffffffffffffffffffffffffffffffff16021790555062000240565b82805462000139906200020a565b90600052602060002090601f0160209004810192826200015d5760008555620001a9565b82601f106200017857805160ff1916838001178555620001a9565b82800160010185558215620001a9579182015b82811115620001a85782518255916020019190600101906200018b565b5b509050620001b89190620001bc565b5090565b5b80821115620001d7576000816000905550600101620001bd565b5090565b7f4e487b7100000000000000000000000000000000000000000000000000000000600052602260045260246000fd5b600060028204905060018216806200022357607f821691505b602082108114156200023a5762000239620001db565b5b50919050565b612de280620002506000396000f3fe608060405234801561001057600080fd5b506004361061012c5760003560e01c806370a08231116100ad578063a22cb46511610071578063a22cb46514610357578063b88d4fde14610373578063c87b56dd1461038f578063e985e9c5146103bf578063f851a440146103ef5761012c565b806370a082311461029d57806377edcb6a146102cd57806378a89567146102fd57806395d89b411461031b5780639f181b5e146103395761012c565b806323b872dd116100f457806323b872dd146101e957806342842e0e1461020557806342966c681461022157806353d927d81461023d5780636352211e1461026d5761012c565b806301ffc9a71461013157806306fdde0314610161578063081812fc1461017f578063095ea7b3146101af5780631249c58b146101cb575b600080fd5b61014b60048036038101906101469190611cd3565b61040d565b6040516101589190611d1b565b60405180910390f35b6101696104ef565b6040516101769190611dcf565b60405180910390f35b61019960048036038101906101949190611e27565b610581565b6040516101a69190611e95565b60405180910390f35b6101c960048036038101906101c49190611edc565b6105c7565b005b6101d36106df565b6040516101e09190611f2b565b60405180910390f35b61020360048036038101906101fe9190611f46565b6107ec565b005b61021f600480360381019061021a9190611f46565b61084c565b005b61023b60048036038101906102369190611e27565b61086c565b005b61025760048036038101906102529190611f99565b6109f0565b6040516102649190611f2b565b60405180910390f35b61028760048036038101906102829190611e27565b610a08565b6040516102949190611e95565b60405180910390f35b6102b760048036038101906102b29190611f99565b610aba565b6040516102c49190611f2b565b60405180910390f35b6102e760048036038101906102e29190611e27565b610b72565b6040516102f49190611e95565b60405180910390f35b610305610ba5565b6040516103129190611f2b565b60405180910390f35b610323610baf565b6040516103309190611dcf565b60405180910390f35b610341610c41565b60405161034e9190611f2b565b60405180910390f35b610371600480360381019061036c9190611ff2565b610c47565b005b61038d60048036038101906103889190612167565b610c5d565b005b6103a960048036038101906103a49190611e27565b610cbf565b6040516103b69190611dcf565b60405180910390f35b6103d960048036038101906103d491906121ea565b610dd2565b6040516103e69190611d1b565b60405180910390f35b6103f7610e66565b6040516104049190611e95565b60405180910390f35b60007f80ac58cd000000000000000000000000000000000000000000000000000000007bffffffffffffffffffffffffffffffffffffffffffffffffffffffff1916827bffffffffffffffffffffffffffffffffffffffffffffffffffffffff191614806104d857507f5b5e139f000000000000000000000000000000000000000000000000000000007bffffffffffffffffffffffffffffffffffffffffffffffffffffffff1916827bffffffffffffffffffffffffffffffffffffffffffffffffffffffff1916145b806104e857506104e782610e8c565b5b9050919050565b6060600080546104fe90612259565b80601f016020809104026020016040519081016040528092919081815260200182805461052a90612259565b80156105775780601f1061054c57610100808354040283529160200191610577565b820191906000526020600020905b81548152906001019060200180831161055a57829003601f168201915b5050505050905090565b600061058c82610ef6565b6004600083815260200190815260200160002060009054906101000a900473ffffffffffffffffffffffffffffffffffffffff169050919050565b60006105d282610a08565b90508073ffffffffffffffffffffffffffffffffffffffff168373ffffffffffffffffffffffffffffffffffffffff161415610643576040517f08c379a000000000000000000000000000000000000000000000000000000000815260040161063a906122fd565b60405180910390fd5b8073ffffffffffffffffffffffffffffffffffffffff16610662610f41565b73ffffffffffffffffffffffffffffffffffffffff16148061069157506106908161068b610f41565b610dd2565b5b6106d0576040517f08c379a00000000000000000000000000000000000000000000000000000000081526004016106c79061238f565b60405180910390fd5b6106da8383610f49565b505050565b60006106eb6007611002565b600960008154809291906106fe906123de565b9190505550600061070f6007611018565b905061071b3382611026565b33600b600083815260200190815260200160002060006101000a81548173ffffffffffffffffffffffffffffffffffffffff021916908373ffffffffffffffffffffffffffffffffffffffff16021790555080600c60003373ffffffffffffffffffffffffffffffffffffffff1673ffffffffffffffffffffffffffffffffffffffff168152602001908152602001600020819055506107e581600a6107c084611200565b6040516020016107d1929190612543565b604051602081830303815290604052611361565b8091505090565b6107fd6107f7610f41565b826113d5565b61083c576040517f08c379a0000000000000000000000000000000000000000000000000000000008152600401610833906125e4565b60405180910390fd5b61084783838361146a565b505050565b61086783838360405180602001604052806000815250610c5d565b505050565b600b600082815260200190815260200160002060009054906101000a900473ffffffffffffffffffffffffffffffffffffffff1673ffffffffffffffffffffffffffffffffffffffff163373ffffffffffffffffffffffffffffffffffffffff161461090d576040517f08c379a000000000000000000000000000000000000000000000000000000000815260040161090490612650565b60405180910390fd5b600b600082815260200190815260200160002060006101000a81549073ffffffffffffffffffffffffffffffffffffffff021916905580600c60003373ffffffffffffffffffffffffffffffffffffffff1673ffffffffffffffffffffffffffffffffffffffff16815260200190815260200160002060008282546109929190612670565b92505081905550600960008154809291906109ac906126a4565b91905055507fbfa41556980d157c24e8632dbb78958f8759a86b4acdea421f93dc7259fb55db336000836040516109e5939291906126ce565b60405180910390a150565b600c6020528060005260406000206000915090505481565b6000806002600084815260200190815260200160002060009054906101000a900473ffffffffffffffffffffffffffffffffffffffff169050600073ffffffffffffffffffffffffffffffffffffffff168173ffffffffffffffffffffffffffffffffffffffff161415610ab1576040517f08c379a0000000000000000000000000000000000000000000000000000000008152600401610aa890612751565b60405180910390fd5b80915050919050565b60008073ffffffffffffffffffffffffffffffffffffffff168273ffffffffffffffffffffffffffffffffffffffff161415610b2b576040517f08c379a0000000000000000000000000000000000000000000000000000000008152600401610b22906127e3565b60405180910390fd5b600360008373ffffffffffffffffffffffffffffffffffffffff1673ffffffffffffffffffffffffffffffffffffffff168152602001908152602001600020549050919050565b600b6020528060005260406000206000915054906101000a900473ffffffffffffffffffffffffffffffffffffffff1681565b6000600954905090565b606060018054610bbe90612259565b80601f0160208091040260200160405190810160405280929190818152602001828054610bea90612259565b8015610c375780601f10610c0c57610100808354040283529160200191610c37565b820191906000526020600020905b815481529060010190602001808311610c1a57829003601f168201915b5050505050905090565b60095481565b610c59610c52610f41565b83836116d1565b5050565b610c6e610c68610f41565b836113d5565b610cad576040517f08c379a0000000000000000000000000000000000000000000000000000000008152600401610ca4906125e4565b60405180910390fd5b610cb98484848461183e565b50505050565b6060610cca82610ef6565b6000600660008481526020019081526020016000208054610cea90612259565b80601f0160208091040260200160405190810160405280929190818152602001828054610d1690612259565b8015610d635780601f10610d3857610100808354040283529160200191610d63565b820191906000526020600020905b815481529060010190602001808311610d4657829003601f168201915b505050505090506000610d7461189a565b9050600081511415610d8a578192505050610dcd565b600082511115610dbf578082604051602001610da7929190612803565b60405160208183030381529060405292505050610dcd565b610dc88461192c565b925050505b919050565b6000600560008473ffffffffffffffffffffffffffffffffffffffff1673ffffffffffffffffffffffffffffffffffffffff16815260200190815260200160002060008373ffffffffffffffffffffffffffffffffffffffff1673ffffffffffffffffffffffffffffffffffffffff16815260200190815260200160002060009054906101000a900460ff16905092915050565b600860009054906101000a900473ffffffffffffffffffffffffffffffffffffffff1681565b60007f01ffc9a7000000000000000000000000000000000000000000000000000000007bffffffffffffffffffffffffffffffffffffffffffffffffffffffff1916827bffffffffffffffffffffffffffffffffffffffffffffffffffffffff1916149050919050565b610eff81611994565b610f3e576040517f08c379a0000000000000000000000000000000000000000000000000000000008152600401610f3590612751565b60405180910390fd5b50565b600033905090565b816004600083815260200190815260200160002060006101000a81548173ffffffffffffffffffffffffffffffffffffffff021916908373ffffffffffffffffffffffffffffffffffffffff160217905550808273ffffffffffffffffffffffffffffffffffffffff16610fbc83610a08565b73ffffffffffffffffffffffffffffffffffffffff167f8c5be1e5ebec7d5bd14f71427d1e84f3dd0314c0f7b2291e5b200ac8c7c3b92560405160405180910390a45050565b6001816000016000828254019250508190555050565b600081600001549050919050565b600073ffffffffffffffffffffffffffffffffffffffff168273ffffffffffffffffffffffffffffffffffffffff161415611096576040517f08c379a000000000000000000000000000000000000000000000000000000000815260040161108d90612873565b60405180910390fd5b61109f81611994565b156110df576040517f08c379a00000000000000000000000000000000000000000000000000000000081526004016110d6906128df565b60405180910390fd5b6110eb60008383611a00565b6001600360008473ffffffffffffffffffffffffffffffffffffffff1673ffffffffffffffffffffffffffffffffffffffff168152602001908152602001600020600082825461113b91906128ff565b92505081905550816002600083815260200190815260200160002060006101000a81548173ffffffffffffffffffffffffffffffffffffffff021916908373ffffffffffffffffffffffffffffffffffffffff160217905550808273ffffffffffffffffffffffffffffffffffffffff16600073ffffffffffffffffffffffffffffffffffffffff167fddf252ad1be2c89b69c2b068fc378daa952ba7f163c4a11628f55a4df523b3ef60405160405180910390a46111fc60008383611a05565b5050565b60606000821415611248576040518060400160405280600181526020017f3000000000000000000000000000000000000000000000000000000000000000815250905061135c565b600082905060005b6000821461127a578080611263906123de565b915050600a826112739190612984565b9150611250565b60008167ffffffffffffffff8111156112965761129561203c565b5b6040519080825280601f01601f1916602001820160405280156112c85781602001600182028036833780820191505090505b5090505b60008514611355576001826112e19190612670565b9150600a856112f091906129b5565b60306112fc91906128ff565b60f81b818381518110611312576113116129e6565b5b60200101907effffffffffffffffffffffffffffffffffffffffffffffffffffffffffffff1916908160001a905350600a8561134e9190612984565b94506112cc565b8093505050505b919050565b61136a82611994565b6113a9576040517f08c379a00000000000000000000000000000000000000000000000000000000081526004016113a090612a87565b60405180910390fd5b806006600084815260200190815260200160002090805190602001906113d0929190611bc4565b505050565b6000806113e183610a08565b90508073ffffffffffffffffffffffffffffffffffffffff168473ffffffffffffffffffffffffffffffffffffffff16148061142357506114228185610dd2565b5b8061146157508373ffffffffffffffffffffffffffffffffffffffff1661144984610581565b73ffffffffffffffffffffffffffffffffffffffff16145b91505092915050565b8273ffffffffffffffffffffffffffffffffffffffff1661148a82610a08565b73ffffffffffffffffffffffffffffffffffffffff16146114e0576040517f08c379a00000000000000000000000000000000000000000000000000000000081526004016114d790612b19565b60405180910390fd5b600073ffffffffffffffffffffffffffffffffffffffff168273ffffffffffffffffffffffffffffffffffffffff161415611550576040517f08c379a000000000000000000000000000000000000000000000000000000000815260040161154790612bab565b60405180910390fd5b61155b838383611a00565b611566600082610f49565b6001600360008573ffffffffffffffffffffffffffffffffffffffff1673ffffffffffffffffffffffffffffffffffffffff16815260200190815260200160002060008282546115b69190612670565b925050819055506001600360008473ffffffffffffffffffffffffffffffffffffffff1673ffffffffffffffffffffffffffffffffffffffff168152602001908152602001600020600082825461160d91906128ff565b92505081905550816002600083815260200190815260200160002060006101000a81548173ffffffffffffffffffffffffffffffffffffffff021916908373ffffffffffffffffffffffffffffffffffffffff160217905550808273ffffffffffffffffffffffffffffffffffffffff168473ffffffffffffffffffffffffffffffffffffffff167fddf252ad1be2c89b69c2b068fc378daa952ba7f163c4a11628f55a4df523b3ef60405160405180910390a46116cc838383611a05565b505050565b8173ffffffffffffffffffffffffffffffffffffffff168373ffffffffffffffffffffffffffffffffffffffff161415611740576040517f08c379a000000000000000000000000000000000000000000000000000000000815260040161173790612c17565b60405180910390fd5b80600560008573ffffffffffffffffffffffffffffffffffffffff1673ffffffffffffffffffffffffffffffffffffffff16815260200190815260200160002060008473ffffffffffffffffffffffffffffffffffffffff1673ffffffffffffffffffffffffffffffffffffffff16815260200190815260200160002060006101000a81548160ff0219169083151502179055508173ffffffffffffffffffffffffffffffffffffffff168373ffffffffffffffffffffffffffffffffffffffff167f17307eab39ab6107e8899845ad3d59bd9653f200f220920489ca2b5937696c31836040516118319190611d1b565b60405180910390a3505050565b61184984848461146a565b61185584848484611a0a565b611894576040517f08c379a000000000000000000000000000000000000000000000000000000000815260040161188b90612ca9565b60405180910390fd5b50505050565b6060600a80546118a990612259565b80601f01602080910402602001604051908101604052809291908181526020018280546118d590612259565b80156119225780601f106118f757610100808354040283529160200191611922565b820191906000526020600020905b81548152906001019060200180831161190557829003601f168201915b5050505050905090565b606061193782610ef6565b600061194161189a565b90506000815111611961576040518060200160405280600081525061198c565b8061196b84611200565b60405160200161197c929190612803565b6040516020818303038152906040525b915050919050565b60008073ffffffffffffffffffffffffffffffffffffffff166002600084815260200190815260200160002060009054906101000a900473ffffffffffffffffffffffffffffffffffffffff1673ffffffffffffffffffffffffffffffffffffffff1614159050919050565b505050565b505050565b6000611a2b8473ffffffffffffffffffffffffffffffffffffffff16611ba1565b15611b94578373ffffffffffffffffffffffffffffffffffffffff1663150b7a02611a54610f41565b8786866040518563ffffffff1660e01b8152600401611a769493929190612d1e565b602060405180830381600087803b158015611a9057600080fd5b505af1925050508015611ac157506040513d601f19601f82011682018060405250810190611abe9190612d7f565b60015b611b44573d8060008114611af1576040519150601f19603f3d011682016040523d82523d6000602084013e611af6565b606091505b50600081511415611b3c576040517f08c379a0000000000000000000000000000000000000000000000000000000008152600401611b3390612ca9565b60405180910390fd5b805181602001fd5b63150b7a0260e01b7bffffffffffffffffffffffffffffffffffffffffffffffffffffffff1916817bffffffffffffffffffffffffffffffffffffffffffffffffffffffff191614915050611b99565b600190505b949350505050565b6000808273ffffffffffffffffffffffffffffffffffffffff163b119050919050565b828054611bd090612259565b90600052602060002090601f016020900481019282611bf25760008555611c39565b82601f10611c0b57805160ff1916838001178555611c39565b82800160010185558215611c39579182015b82811115611c38578251825591602001919060010190611c1d565b5b509050611c469190611c4a565b5090565b5b80821115611c63576000816000905550600101611c4b565b5090565b6000604051905090565b600080fd5b600080fd5b60007fffffffff0000000000000000000000000000000000000000000000000000000082169050919050565b611cb081611c7b565b8114611cbb57600080fd5b50565b600081359050611ccd81611ca7565b92915050565b600060208284031215611ce957611ce8611c71565b5b6000611cf784828501611cbe565b91505092915050565b60008115159050919050565b611d1581611d00565b82525050565b6000602082019050611d306000830184611d0c565b92915050565b600081519050919050565b600082825260208201905092915050565b60005b83811015611d70578082015181840152602081019050611d55565b83811115611d7f576000848401525b50505050565b6000601f19601f8301169050919050565b6000611da182611d36565b611dab8185611d41565b9350611dbb818560208601611d52565b611dc481611d85565b840191505092915050565b60006020820190508181036000830152611de98184611d96565b905092915050565b6000819050919050565b611e0481611df1565b8114611e0f57600080fd5b50565b600081359050611e2181611dfb565b92915050565b600060208284031215611e3d57611e3c611c71565b5b6000611e4b84828501611e12565b91505092915050565b600073ffffffffffffffffffffffffffffffffffffffff82169050919050565b6000611e7f82611e54565b9050919050565b611e8f81611e74565b82525050565b6000602082019050611eaa6000830184611e86565b92915050565b611eb981611e74565b8114611ec457600080fd5b50565b600081359050611ed681611eb0565b92915050565b60008060408385031215611ef357611ef2611c71565b5b6000611f0185828601611ec7565b9250506020611f1285828601611e12565b9150509250929050565b611f2581611df1565b82525050565b6000602082019050611f406000830184611f1c565b92915050565b600080600060608486031215611f5f57611f5e611c71565b5b6000611f6d86828701611ec7565b9350506020611f7e86828701611ec7565b9250506040611f8f86828701611e12565b9150509250925092565b600060208284031215611faf57611fae611c71565b5b6000611fbd84828501611ec7565b91505092915050565b611fcf81611d00565b8114611fda57600080fd5b50565b600081359050611fec81611fc6565b92915050565b6000806040838503121561200957612008611c71565b5b600061201785828601611ec7565b925050602061202885828601611fdd565b9150509250929050565b600080fd5b600080fd5b7f4e487b7100000000000000000000000000000000000000000000000000000000600052604160045260246000fd5b61207482611d85565b810181811067ffffffffffffffff821117156120935761209261203c565b5b80604052505050565b60006120a6611c67565b90506120b2828261206b565b919050565b600067ffffffffffffffff8211156120d2576120d161203c565b5b6120db82611d85565b9050602081019050919050565b82818337600083830152505050565b600061210a612105846120b7565b61209c565b90508281526020810184848401111561212657612125612037565b5b6121318482856120e8565b509392505050565b600082601f83011261214e5761214d612032565b5b813561215e8482602086016120f7565b91505092915050565b6000806000806080858703121561218157612180611c71565b5b600061218f87828801611ec7565b94505060206121a087828801611ec7565b93505060406121b187828801611e12565b925050606085013567ffffffffffffffff8111156121d2576121d1611c76565b5b6121de87828801612139565b91505092959194509250565b6000806040838503121561220157612200611c71565b5b600061220f85828601611ec7565b925050602061222085828601611ec7565b9150509250929050565b7f4e487b7100000000000000000000000000000000000000000000000000000000600052602260045260246000fd5b6000600282049050600182168061227157607f821691505b602082108114156122855761228461222a565b5b50919050565b7f4552433732313a20617070726f76616c20746f2063757272656e74206f776e6560008201527f7200000000000000000000000000000000000000000000000000000000000000602082015250565b60006122e7602183611d41565b91506122f28261228b565b604082019050919050565b60006020820190508181036000830152612316816122da565b9050919050565b7f4552433732313a20617070726f76652063616c6c6572206973206e6f7420746f60008201527f6b656e206f776e6572206e6f7220617070726f76656420666f7220616c6c0000602082015250565b6000612379603e83611d41565b91506123848261231d565b604082019050919050565b600060208201905081810360008301526123a88161236c565b9050919050565b7f4e487b7100000000000000000000000000000000000000000000000000000000600052601160045260246000fd5b60006123e982611df1565b91507fffffffffffffffffffffffffffffffffffffffffffffffffffffffffffffffff82141561241c5761241b6123af565b5b600182019050919050565b600081905092915050565b60008190508160005260206000209050919050565b6000815461245481612259565b61245e8186612427565b94506001821660008114612479576001811461248a576124bd565b60ff198316865281860193506124bd565b61249385612432565b60005b838110156124b557815481890152600182019150602081019050612496565b838801955050505b50505092915050565b60006124d182611d36565b6124db8185612427565b93506124eb818560208601611d52565b80840191505092915050565b7f2e6a736f6e000000000000000000000000000000000000000000000000000000600082015250565b600061252d600583612427565b9150612538826124f7565b600582019050919050565b600061254f8285612447565b915061255b82846124c6565b915061256682612520565b91508190509392505050565b7f4552433732313a2063616c6c6572206973206e6f7420746f6b656e206f776e6560008201527f72206e6f7220617070726f766564000000000000000000000000000000000000602082015250565b60006125ce602e83611d41565b91506125d982612572565b604082019050919050565b600060208201905081810360008301526125fd816125c1565b9050919050565b7f6e6f74206f776e6572206f6620746f6b656e0000000000000000000000000000600082015250565b600061263a601283611d41565b915061264582612604565b602082019050919050565b600060208201905081810360008301526126698161262d565b9050919050565b600061267b82611df1565b915061268683611df1565b925082821015612699576126986123af565b5b828203905092915050565b60006126af82611df1565b915060008214156126c3576126c26123af565b5b600182039050919050565b60006060820190506126e36000830186611e86565b6126f06020830185611e86565b6126fd6040830184611f1c565b949350505050565b7f4552433732313a20696e76616c696420746f6b656e2049440000000000000000600082015250565b600061273b601883611d41565b915061274682612705565b602082019050919050565b6000602082019050818103600083015261276a8161272e565b9050919050565b7f4552433732313a2061646472657373207a65726f206973206e6f74206120766160008201527f6c6964206f776e65720000000000000000000000000000000000000000000000602082015250565b60006127cd602983611d41565b91506127d882612771565b604082019050919050565b600060208201905081810360008301526127fc816127c0565b9050919050565b600061280f82856124c6565b915061281b82846124c6565b91508190509392505050565b7f4552433732313a206d696e7420746f20746865207a65726f2061646472657373600082015250565b600061285d602083611d41565b915061286882612827565b602082019050919050565b6000602082019050818103600083015261288c81612850565b9050919050565b7f4552433732313a20746f6b656e20616c7265616479206d696e74656400000000600082015250565b60006128c9601c83611d41565b91506128d482612893565b602082019050919050565b600060208201905081810360008301526128f8816128bc565b9050919050565b600061290a82611df1565b915061291583611df1565b9250827fffffffffffffffffffffffffffffffffffffffffffffffffffffffffffffffff0382111561294a576129496123af565b5b828201905092915050565b7f4e487b7100000000000000000000000000000000000000000000000000000000600052601260045260246000fd5b600061298f82611df1565b915061299a83611df1565b9250826129aa576129a9612955565b5b828204905092915050565b60006129c082611df1565b91506129cb83611df1565b9250826129db576129da612955565b5b828206905092915050565b7f4e487b7100000000000000000000000000000000000000000000000000000000600052603260045260246000fd5b7f45524337323155524953746f726167653a2055524920736574206f66206e6f6e60008201527f6578697374656e7420746f6b656e000000000000000000000000000000000000602082015250565b6000612a71602e83611d41565b9150612a7c82612a15565b604082019050919050565b60006020820190508181036000830152612aa081612a64565b9050919050565b7f4552433732313a207472616e736665722066726f6d20696e636f72726563742060008201527f6f776e6572000000000000000000000000000000000000000000000000000000602082015250565b6000612b03602583611d41565b9150612b0e82612aa7565b604082019050919050565b60006020820190508181036000830152612b3281612af6565b9050919050565b7f4552433732313a207472616e7366657220746f20746865207a65726f2061646460008201527f7265737300000000000000000000000000000000000000000000000000000000602082015250565b6000612b95602483611d41565b9150612ba082612b39565b604082019050919050565b60006020820190508181036000830152612bc481612b88565b9050919050565b7f4552433732313a20617070726f766520746f2063616c6c657200000000000000600082015250565b6000612c01601983611d41565b9150612c0c82612bcb565b602082019050919050565b60006020820190508181036000830152612c3081612bf4565b9050919050565b7f4552433732313a207472616e7366657220746f206e6f6e20455243373231526560008201527f63656976657220696d706c656d656e7465720000000000000000000000000000602082015250565b6000612c93603283611d41565b9150612c9e82612c37565b604082019050919050565b60006020820190508181036000830152612cc281612c86565b9050919050565b600081519050919050565b600082825260208201905092915050565b6000612cf082612cc9565b612cfa8185612cd4565b9350612d0a818560208601611d52565b612d1381611d85565b840191505092915050565b6000608082019050612d336000830187611e86565b612d406020830186611e86565b612d4d6040830185611f1c565b8181036060830152612d5f8184612ce5565b905095945050505050565b600081519050612d7981611ca7565b92915050565b600060208284031215612d9557612d94611c71565b5b6000612da384828501612d6a565b9150509291505056fea2646970667358221220c23f4312fcc340b57c3537675d5943de0ad5bb864e826903e34ede2241d5d24564736f6c6343000809003368747470733a2f2f697066732e696f2f697066732f516d624d694e397143334d655a7179763768705258414b54594e3659704b6a39526263703762396569774b3763592f",
  "linkReferences": {},
  "deployedLinkReferences": {}
}