{
  "_format": "hh-sol-artifact-1",
  "contractName": "APCollection",
  "sourceName": "contracts/APNFT.sol",
  "abi": [
    {
      "inputs": [],
      "stateMutability": "nonpayable",
      "type": "constructor"
    },
    {
      "anonymous": false,
      "inputs": [
        {
          "indexed": true,
          "internalType": "address",
          "name": "owner",
          "type": "address"
        },
        {
          "indexed": true,
          "internalType": "address",
          "name": "approved",
          "type": "address"
        },
        {
          "indexed": true,
          "internalType": "uint256",
          "name": "tokenId",
          "type": "uint256"
        }
      ],
      "name": "Approval",
      "type": "event"
    },
    {
      "anonymous": false,
      "inputs": [
        {
          "indexed": true,
          "internalType": "address",
          "name": "owner",
          "type": "address"
        },
        {
          "indexed": true,
          "internalType": "address",
          "name": "operator",
          "type": "address"
        },
        {
          "indexed": false,
          "internalType": "bool",
          "name": "approved",
          "type": "bool"
        }
      ],
      "name": "ApprovalForAll",
      "type": "event"
    },
    {
      "anonymous": false,
      "inputs": [
        {
          "indexed": false,
          "internalType": "address",
          "name": "_tokenOwner",
          "type": "address"
        },
        {
          "indexed": false,
          "internalType": "address",
          "name": "_to",
          "type": "address"
        },
        {
          "indexed": false,
          "internalType": "uint256",
          "name": "_tokenId",
          "type": "uint256"
        }
      ],
      "name": "TokenBurned",
      "type": "event"
    },
    {
      "anonymous": false,
      "inputs": [
        {
          "indexed": true,
          "internalType": "address",
          "name": "from",
          "type": "address"
        },
        {
          "indexed": true,
          "internalType": "address",
          "name": "to",
          "type": "address"
        },
        {
          "indexed": true,
          "internalType": "uint256",
          "name": "tokenId",
          "type": "uint256"
        }
      ],
      "name": "Transfer",
      "type": "event"
    },
    {
      "inputs": [
        {
          "internalType": "address",
          "name": "",
          "type": "address"
        }
      ],
      "name": "NFTOwner",
      "outputs": [
        {
          "internalType": "uint256",
          "name": "",
          "type": "uint256"
        }
      ],
      "stateMutability": "view",
      "type": "function"
    },
    {
      "inputs": [
        {
          "internalType": "uint256",
          "name": "",
          "type": "uint256"
        }
      ],
      "name": "_ownerOfNFT",
      "outputs": [
        {
          "internalType": "address",
          "name": "",
          "type": "address"
        }
      ],
      "stateMutability": "view",
      "type": "function"
    },
    {
      "inputs": [],
      "name": "admin",
      "outputs": [
        {
          "internalType": "address",
          "name": "",
          "type": "address"
        }
      ],
      "stateMutability": "view",
      "type": "function"
    },
    {
      "inputs": [
        {
          "internalType": "address",
          "name": "to",
          "type": "address"
        },
        {
          "internalType": "uint256",
          "name": "tokenId",
          "type": "uint256"
        }
      ],
      "name": "approve",
      "outputs": [],
      "stateMutability": "nonpayable",
      "type": "function"
    },
    {
      "inputs": [
        {
          "internalType": "address",
          "name": "owner",
          "type": "address"
        }
      ],
      "name": "balanceOf",
      "outputs": [
        {
          "internalType": "uint256",
          "name": "",
          "type": "uint256"
        }
      ],
      "stateMutability": "view",
      "type": "function"
    },
    {
      "inputs": [
        {
          "internalType": "uint256",
          "name": "tokenId",
          "type": "uint256"
        }
      ],
      "name": "burn",
      "outputs": [],
      "stateMutability": "nonpayable",
      "type": "function"
    },
    {
      "inputs": [
        {
          "internalType": "uint256",
          "name": "tokenId",
          "type": "uint256"
        }
      ],
      "name": "getApproved",
      "outputs": [
        {
          "internalType": "address",
          "name": "",
          "type": "address"
        }
      ],
      "stateMutability": "view",
      "type": "function"
    },
    {
      "inputs": [],
      "name": "getTokenCount",
      "outputs": [
        {
          "internalType": "uint256",
          "name": "",
          "type": "uint256"
        }
      ],
      "stateMutability": "view",
      "type": "function"
    },
    {
      "inputs": [
        {
          "internalType": "address",
          "name": "owner",
          "type": "address"
        },
        {
          "internalType": "address",
          "name": "operator",
          "type": "address"
        }
      ],
      "name": "isApprovedForAll",
      "outputs": [
        {
          "internalType": "bool",
          "name": "",
          "type": "bool"
        }
      ],
      "stateMutability": "view",
      "type": "function"
    },
    {
      "inputs": [],
      "name": "mint",
      "outputs": [
        {
          "internalType": "uint256",
          "name": "",
          "type": "uint256"
        }
      ],
      "stateMutability": "nonpayable",
      "type": "function"
    },
    {
      "inputs": [],
      "name": "name",
      "outputs": [
        {
          "internalType": "string",
          "name": "",
          "type": "string"
        }
      ],
      "stateMutability": "view",
      "type": "function"
    },
    {
      "inputs": [
        {
          "internalType": "uint256",
          "name": "tokenId",
          "type": "uint256"
        }
      ],
      "name": "ownerOf",
      "outputs": [
        {
          "internalType": "address",
          "name": "",
          "type": "address"
        }
      ],
      "stateMutability": "view",
      "type": "function"
    },
    {
      "inputs": [
        {
          "internalType": "address",
          "name": "from",
          "type": "address"
        },
        {
          "internalType": "address",
          "name": "to",
          "type": "address"
        },
        {
          "internalType": "uint256",
          "name": "tokenId",
          "type": "uint256"
        }
      ],
      "name": "safeTransferFrom",
      "outputs": [],
      "stateMutability": "nonpayable",
      "type": "function"
    },
    {
      "inputs": [
        {
          "internalType": "address",
          "name": "from",
          "type": "address"
        },
        {
          "internalType": "address",
          "name": "to",
          "type": "address"
        },
        {
          "internalType": "uint256",
          "name": "tokenId",
          "type": "uint256"
        },
        {
          "internalType": "bytes",
          "name": "data",
          "type": "bytes"
        }
      ],
      "name": "safeTransferFrom",
      "outputs": [],
      "stateMutability": "nonpayable",
      "type": "function"
    },
    {
      "inputs": [
        {
          "internalType": "address",
          "name": "operator",
          "type": "address"
        },
        {
          "internalType": "bool",
          "name": "approved",
          "type": "bool"
        }
      ],
      "name": "setApprovalForAll",
      "outputs": [],
      "stateMutability": "nonpayable",
      "type": "function"
    },
    {
      "inputs": [
        {
          "internalType": "bytes4",
          "name": "interfaceId",
          "type": "bytes4"
        }
      ],
      "name": "supportsInterface",
      "outputs": [
        {
          "internalType": "bool",
          "name": "",
          "type": "bool"
        }
      ],
      "stateMutability": "view",
      "type": "function"
    },
    {
      "inputs": [],
      "name": "symbol",
      "outputs": [
        {
          "internalType": "string",
          "name": "",
          "type": "string"
        }
      ],
      "stateMutability": "view",
      "type": "function"
    },
    {
      "inputs": [],
      "name": "tokenCount",
      "outputs": [
        {
          "internalType": "uint256",
          "name": "",
          "type": "uint256"
        }
      ],
      "stateMutability": "view",
      "type": "function"
    },
    {
      "inputs": [
        {
          "internalType": "uint256",
          "name": "tokenId",
          "type": "uint256"
        }
      ],
      "name": "tokenURI",
      "outputs": [
        {
          "internalType": "string",
          "name": "",
          "type": "string"
        }
      ],
      "stateMutability": "view",
      "type": "function"
    },
    {
      "inputs": [
        {
          "internalType": "uint256",
          "name": "",
          "type": "uint256"
        }
      ],
      "name": "tokenUriList",
      "outputs": [
        {
          "internalType": "string",
          "name": "",
          "type": "string"
        }
      ],
      "stateMutability": "view",
      "type": "function"
    },
    {
      "inputs": [
        {
          "internalType": "address",
          "name": "from",
          "type": "address"
        },
        {
          "internalType": "address",
          "name": "to",
          "type": "address"
        },
        {
          "internalType": "uint256",
          "name": "tokenId",
          "type": "uint256"
        }
      ],
      "name": "transferFrom",
      "outputs": [],
      "stateMutability": "nonpayable",
      "type": "function"
    }
  ],
  "bytecode": "0x60806040526040518060800160405280604481526020016200318d60449139600a9080519060200190620000359291906200012b565b503480156200004357600080fd5b506040518060400160405280600981526020017f414920416c69656e7300000000000000000000000000000000000000000000008152506040518060400160405280600381526020017f41494100000000000000000000000000000000000000000000000000000000008152508160009080519060200190620000c89291906200012b565b508060019080519060200190620000e19291906200012b565b50505033600860006101000a81548173ffffffffffffffffffffffffffffffffffffffff021916908373ffffffffffffffffffffffffffffffffffffffff16021790555062000240565b82805462000139906200020a565b90600052602060002090601f0160209004810192826200015d5760008555620001a9565b82601f106200017857805160ff1916838001178555620001a9565b82800160010185558215620001a9579182015b82811115620001a85782518255916020019190600101906200018b565b5b509050620001b89190620001bc565b5090565b5b80821115620001d7576000816000905550600101620001bd565b5090565b7f4e487b7100000000000000000000000000000000000000000000000000000000600052602260045260246000fd5b600060028204905060018216806200022357607f821691505b602082108114156200023a5762000239620001db565b5b50919050565b612f3d80620002506000396000f3fe608060405234801561001057600080fd5b50600436106101375760003560e01c806370a08231116100b8578063a22cb4651161007c578063a22cb46514610362578063b88d4fde1461037e578063bd91154d1461039a578063c87b56dd146103ca578063e985e9c5146103fa578063f851a4401461042a57610137565b806370a08231146102a857806377edcb6a146102d857806378a895671461030857806395d89b41146103265780639f181b5e1461034457610137565b806323b872dd116100ff57806323b872dd146101f457806342842e0e1461021057806342966c681461022c57806353d927d8146102485780636352211e1461027857610137565b806301ffc9a71461013c57806306fdde031461016c578063081812fc1461018a578063095ea7b3146101ba5780631249c58b146101d6575b600080fd5b61015660048036038101906101519190611e2e565b610448565b6040516101639190611e76565b60405180910390f35b61017461052a565b6040516101819190611f2a565b60405180910390f35b6101a4600480360381019061019f9190611f82565b6105bc565b6040516101b19190611ff0565b60405180910390f35b6101d460048036038101906101cf9190612037565b610602565b005b6101de61071a565b6040516101eb9190612086565b60405180910390f35b61020e600480360381019061020991906120a1565b610860565b005b61022a600480360381019061022591906120a1565b6108c0565b005b61024660048036038101906102419190611f82565b6108e0565b005b610262600480360381019061025d91906120f4565b610a64565b60405161026f9190612086565b60405180910390f35b610292600480360381019061028d9190611f82565b610a7c565b60405161029f9190611ff0565b60405180910390f35b6102c260048036038101906102bd91906120f4565b610b2e565b6040516102cf9190612086565b60405180910390f35b6102f260048036038101906102ed9190611f82565b610be6565b6040516102ff9190611ff0565b60405180910390f35b610310610c19565b60405161031d9190612086565b60405180910390f35b61032e610c23565b60405161033b9190611f2a565b60405180910390f35b61034c610cb5565b6040516103599190612086565b60405180910390f35b61037c6004803603810190610377919061214d565b610cbb565b005b610398600480360381019061039391906122c2565b610cd1565b005b6103b460048036038101906103af9190611f82565b610d33565b6040516103c19190611f2a565b60405180910390f35b6103e460048036038101906103df9190611f82565b610dd3565b6040516103f19190611f2a565b60405180910390f35b610414600480360381019061040f9190612345565b610ee6565b6040516104219190611e76565b60405180910390f35b610432610f7a565b60405161043f9190611ff0565b60405180910390f35b60007f80ac58cd000000000000000000000000000000000000000000000000000000007bffffffffffffffffffffffffffffffffffffffffffffffffffffffff1916827bffffffffffffffffffffffffffffffffffffffffffffffffffffffff1916148061051357507f5b5e139f000000000000000000000000000000000000000000000000000000007bffffffffffffffffffffffffffffffffffffffffffffffffffffffff1916827bffffffffffffffffffffffffffffffffffffffffffffffffffffffff1916145b80610523575061052282610fa0565b5b9050919050565b606060008054610539906123b4565b80601f0160208091040260200160405190810160405280929190818152602001828054610565906123b4565b80156105b25780601f10610587576101008083540402835291602001916105b2565b820191906000526020600020905b81548152906001019060200180831161059557829003601f168201915b5050505050905090565b60006105c78261100a565b6004600083815260200190815260200160002060009054906101000a900473ffffffffffffffffffffffffffffffffffffffff169050919050565b600061060d82610a7c565b90508073ffffffffffffffffffffffffffffffffffffffff168373ffffffffffffffffffffffffffffffffffffffff16141561067e576040517f08c379a000000000000000000000000000000000000000000000000000000000815260040161067590612458565b60405180910390fd5b8073ffffffffffffffffffffffffffffffffffffffff1661069d611055565b73ffffffffffffffffffffffffffffffffffffffff1614806106cc57506106cb816106c6611055565b610ee6565b5b61070b576040517f08c379a0000000000000000000000000000000000000000000000000000000008152600401610702906124ea565b60405180910390fd5b610715838361105d565b505050565b60006107266007611116565b6009600081548092919061073990612539565b9190505550600061074a600761112c565b9050610756338261113a565b33600b600083815260200190815260200160002060006101000a81548173ffffffffffffffffffffffffffffffffffffffff021916908373ffffffffffffffffffffffffffffffffffffffff16021790555080600c60003373ffffffffffffffffffffffffffffffffffffffff1673ffffffffffffffffffffffffffffffffffffffff168152602001908152602001600020819055506000600a6107f983611314565b60405160200161080a92919061269e565b60405160208183030381529060405290506108258282611475565b61082e816114e9565b80600d600060095481526020019081526020016000209080519060200190610857929190611d1f565b50819250505090565b61087161086b611055565b82611582565b6108b0576040517f08c379a00000000000000000000000000000000000000000000000000000000081526004016108a79061273f565b60405180910390fd5b6108bb838383611617565b505050565b6108db83838360405180602001604052806000815250610cd1565b505050565b600b600082815260200190815260200160002060009054906101000a900473ffffffffffffffffffffffffffffffffffffffff1673ffffffffffffffffffffffffffffffffffffffff163373ffffffffffffffffffffffffffffffffffffffff1614610981576040517f08c379a0000000000000000000000000000000000000000000000000000000008152600401610978906127ab565b60405180910390fd5b600b600082815260200190815260200160002060006101000a81549073ffffffffffffffffffffffffffffffffffffffff021916905580600c60003373ffffffffffffffffffffffffffffffffffffffff1673ffffffffffffffffffffffffffffffffffffffff1681526020019081526020016000206000828254610a0691906127cb565b9250508190555060096000815480929190610a20906127ff565b91905055507fbfa41556980d157c24e8632dbb78958f8759a86b4acdea421f93dc7259fb55db33600083604051610a5993929190612829565b60405180910390a150565b600c6020528060005260406000206000915090505481565b6000806002600084815260200190815260200160002060009054906101000a900473ffffffffffffffffffffffffffffffffffffffff169050600073ffffffffffffffffffffffffffffffffffffffff168173ffffffffffffffffffffffffffffffffffffffff161415610b25576040517f08c379a0000000000000000000000000000000000000000000000000000000008152600401610b1c906128ac565b60405180910390fd5b80915050919050565b60008073ffffffffffffffffffffffffffffffffffffffff168273ffffffffffffffffffffffffffffffffffffffff161415610b9f576040517f08c379a0000000000000000000000000000000000000000000000000000000008152600401610b969061293e565b60405180910390fd5b600360008373ffffffffffffffffffffffffffffffffffffffff1673ffffffffffffffffffffffffffffffffffffffff168152602001908152602001600020549050919050565b600b6020528060005260406000206000915054906101000a900473ffffffffffffffffffffffffffffffffffffffff1681565b6000600954905090565b606060018054610c32906123b4565b80601f0160208091040260200160405190810160405280929190818152602001828054610c5e906123b4565b8015610cab5780601f10610c8057610100808354040283529160200191610cab565b820191906000526020600020905b815481529060010190602001808311610c8e57829003601f168201915b5050505050905090565b60095481565b610ccd610cc6611055565b838361187e565b5050565b610ce2610cdc611055565b83611582565b610d21576040517f08c379a0000000000000000000000000000000000000000000000000000000008152600401610d189061273f565b60405180910390fd5b610d2d848484846119eb565b50505050565b600d6020528060005260406000206000915090508054610d52906123b4565b80601f0160208091040260200160405190810160405280929190818152602001828054610d7e906123b4565b8015610dcb5780601f10610da057610100808354040283529160200191610dcb565b820191906000526020600020905b815481529060010190602001808311610dae57829003601f168201915b505050505081565b6060610dde8261100a565b6000600660008481526020019081526020016000208054610dfe906123b4565b80601f0160208091040260200160405190810160405280929190818152602001828054610e2a906123b4565b8015610e775780601f10610e4c57610100808354040283529160200191610e77565b820191906000526020600020905b815481529060010190602001808311610e5a57829003601f168201915b505050505090506000610e88611a47565b9050600081511415610e9e578192505050610ee1565b600082511115610ed3578082604051602001610ebb92919061295e565b60405160208183030381529060405292505050610ee1565b610edc84611a5e565b925050505b919050565b6000600560008473ffffffffffffffffffffffffffffffffffffffff1673ffffffffffffffffffffffffffffffffffffffff16815260200190815260200160002060008373ffffffffffffffffffffffffffffffffffffffff1673ffffffffffffffffffffffffffffffffffffffff16815260200190815260200160002060009054906101000a900460ff16905092915050565b600860009054906101000a900473ffffffffffffffffffffffffffffffffffffffff1681565b60007f01ffc9a7000000000000000000000000000000000000000000000000000000007bffffffffffffffffffffffffffffffffffffffffffffffffffffffff1916827bffffffffffffffffffffffffffffffffffffffffffffffffffffffff1916149050919050565b61101381611ac6565b611052576040517f08c379a0000000000000000000000000000000000000000000000000000000008152600401611049906128ac565b60405180910390fd5b50565b600033905090565b816004600083815260200190815260200160002060006101000a81548173ffffffffffffffffffffffffffffffffffffffff021916908373ffffffffffffffffffffffffffffffffffffffff160217905550808273ffffffffffffffffffffffffffffffffffffffff166110d083610a7c565b73ffffffffffffffffffffffffffffffffffffffff167f8c5be1e5ebec7d5bd14f71427d1e84f3dd0314c0f7b2291e5b200ac8c7c3b92560405160405180910390a45050565b6001816000016000828254019250508190555050565b600081600001549050919050565b600073ffffffffffffffffffffffffffffffffffffffff168273ffffffffffffffffffffffffffffffffffffffff1614156111aa576040517f08c379a00000000000000000000000000000000000000000000000000000000081526004016111a1906129ce565b60405180910390fd5b6111b381611ac6565b156111f3576040517f08c379a00000000000000000000000000000000000000000000000000000000081526004016111ea90612a3a565b60405180910390fd5b6111ff60008383611b32565b6001600360008473ffffffffffffffffffffffffffffffffffffffff1673ffffffffffffffffffffffffffffffffffffffff168152602001908152602001600020600082825461124f9190612a5a565b92505081905550816002600083815260200190815260200160002060006101000a81548173ffffffffffffffffffffffffffffffffffffffff021916908373ffffffffffffffffffffffffffffffffffffffff160217905550808273ffffffffffffffffffffffffffffffffffffffff16600073ffffffffffffffffffffffffffffffffffffffff167fddf252ad1be2c89b69c2b068fc378daa952ba7f163c4a11628f55a4df523b3ef60405160405180910390a461131060008383611b37565b5050565b6060600082141561135c576040518060400160405280600181526020017f30000000000000000000000000000000000000000000000000000000000000008152509050611470565b600082905060005b6000821461138e57808061137790612539565b915050600a826113879190612adf565b9150611364565b60008167ffffffffffffffff8111156113aa576113a9612197565b5b6040519080825280601f01601f1916602001820160405280156113dc5781602001600182028036833780820191505090505b5090505b60008514611469576001826113f591906127cb565b9150600a856114049190612b10565b60306114109190612a5a565b60f81b81838151811061142657611425612b41565b5b60200101907effffffffffffffffffffffffffffffffffffffffffffffffffffffffffffff1916908160001a905350600a856114629190612adf565b94506113e0565b8093505050505b919050565b61147e82611ac6565b6114bd576040517f08c379a00000000000000000000000000000000000000000000000000000000081526004016114b490612be2565b60405180910390fd5b806006600084815260200190815260200160002090805190602001906114e4929190611d1f565b505050565b61157f816040516024016114fd9190611f2a565b6040516020818303038152906040527f41304fac000000000000000000000000000000000000000000000000000000007bffffffffffffffffffffffffffffffffffffffffffffffffffffffff19166020820180517bffffffffffffffffffffffffffffffffffffffffffffffffffffffff8381831617835250505050611b3c565b50565b60008061158e83610a7c565b90508073ffffffffffffffffffffffffffffffffffffffff168473ffffffffffffffffffffffffffffffffffffffff1614806115d057506115cf8185610ee6565b5b8061160e57508373ffffffffffffffffffffffffffffffffffffffff166115f6846105bc565b73ffffffffffffffffffffffffffffffffffffffff16145b91505092915050565b8273ffffffffffffffffffffffffffffffffffffffff1661163782610a7c565b73ffffffffffffffffffffffffffffffffffffffff161461168d576040517f08c379a000000000000000000000000000000000000000000000000000000000815260040161168490612c74565b60405180910390fd5b600073ffffffffffffffffffffffffffffffffffffffff168273ffffffffffffffffffffffffffffffffffffffff1614156116fd576040517f08c379a00000000000000000000000000000000000000000000000000000000081526004016116f490612d06565b60405180910390fd5b611708838383611b32565b61171360008261105d565b6001600360008573ffffffffffffffffffffffffffffffffffffffff1673ffffffffffffffffffffffffffffffffffffffff168152602001908152602001600020600082825461176391906127cb565b925050819055506001600360008473ffffffffffffffffffffffffffffffffffffffff1673ffffffffffffffffffffffffffffffffffffffff16815260200190815260200160002060008282546117ba9190612a5a565b92505081905550816002600083815260200190815260200160002060006101000a81548173ffffffffffffffffffffffffffffffffffffffff021916908373ffffffffffffffffffffffffffffffffffffffff160217905550808273ffffffffffffffffffffffffffffffffffffffff168473ffffffffffffffffffffffffffffffffffffffff167fddf252ad1be2c89b69c2b068fc378daa952ba7f163c4a11628f55a4df523b3ef60405160405180910390a4611879838383611b37565b505050565b8173ffffffffffffffffffffffffffffffffffffffff168373ffffffffffffffffffffffffffffffffffffffff1614156118ed576040517f08c379a00000000000000000000000000000000000000000000000000000000081526004016118e490612d72565b60405180910390fd5b80600560008573ffffffffffffffffffffffffffffffffffffffff1673ffffffffffffffffffffffffffffffffffffffff16815260200190815260200160002060008473ffffffffffffffffffffffffffffffffffffffff1673ffffffffffffffffffffffffffffffffffffffff16815260200190815260200160002060006101000a81548160ff0219169083151502179055508173ffffffffffffffffffffffffffffffffffffffff168373ffffffffffffffffffffffffffffffffffffffff167f17307eab39ab6107e8899845ad3d59bd9653f200f220920489ca2b5937696c31836040516119de9190611e76565b60405180910390a3505050565b6119f6848484611617565b611a0284848484611b65565b611a41576040517f08c379a0000000000000000000000000000000000000000000000000000000008152600401611a3890612e04565b60405180910390fd5b50505050565b606060405180602001604052806000815250905090565b6060611a698261100a565b6000611a73611a47565b90506000815111611a935760405180602001604052806000815250611abe565b80611a9d84611314565b604051602001611aae92919061295e565b6040516020818303038152906040525b915050919050565b60008073ffffffffffffffffffffffffffffffffffffffff166002600084815260200190815260200160002060009054906101000a900473ffffffffffffffffffffffffffffffffffffffff1673ffffffffffffffffffffffffffffffffffffffff1614159050919050565b505050565b505050565b60008151905060006a636f6e736f6c652e6c6f679050602083016000808483855afa5050505050565b6000611b868473ffffffffffffffffffffffffffffffffffffffff16611cfc565b15611cef578373ffffffffffffffffffffffffffffffffffffffff1663150b7a02611baf611055565b8786866040518563ffffffff1660e01b8152600401611bd19493929190612e79565b602060405180830381600087803b158015611beb57600080fd5b505af1925050508015611c1c57506040513d601f19601f82011682018060405250810190611c199190612eda565b60015b611c9f573d8060008114611c4c576040519150601f19603f3d011682016040523d82523d6000602084013e611c51565b606091505b50600081511415611c97576040517f08c379a0000000000000000000000000000000000000000000000000000000008152600401611c8e90612e04565b60405180910390fd5b805181602001fd5b63150b7a0260e01b7bffffffffffffffffffffffffffffffffffffffffffffffffffffffff1916817bffffffffffffffffffffffffffffffffffffffffffffffffffffffff191614915050611cf4565b600190505b949350505050565b6000808273ffffffffffffffffffffffffffffffffffffffff163b119050919050565b828054611d2b906123b4565b90600052602060002090601f016020900481019282611d4d5760008555611d94565b82601f10611d6657805160ff1916838001178555611d94565b82800160010185558215611d94579182015b82811115611d93578251825591602001919060010190611d78565b5b509050611da19190611da5565b5090565b5b80821115611dbe576000816000905550600101611da6565b5090565b6000604051905090565b600080fd5b600080fd5b60007fffffffff0000000000000000000000000000000000000000000000000000000082169050919050565b611e0b81611dd6565b8114611e1657600080fd5b50565b600081359050611e2881611e02565b92915050565b600060208284031215611e4457611e43611dcc565b5b6000611e5284828501611e19565b91505092915050565b60008115159050919050565b611e7081611e5b565b82525050565b6000602082019050611e8b6000830184611e67565b92915050565b600081519050919050565b600082825260208201905092915050565b60005b83811015611ecb578082015181840152602081019050611eb0565b83811115611eda576000848401525b50505050565b6000601f19601f8301169050919050565b6000611efc82611e91565b611f068185611e9c565b9350611f16818560208601611ead565b611f1f81611ee0565b840191505092915050565b60006020820190508181036000830152611f448184611ef1565b905092915050565b6000819050919050565b611f5f81611f4c565b8114611f6a57600080fd5b50565b600081359050611f7c81611f56565b92915050565b600060208284031215611f9857611f97611dcc565b5b6000611fa684828501611f6d565b91505092915050565b600073ffffffffffffffffffffffffffffffffffffffff82169050919050565b6000611fda82611faf565b9050919050565b611fea81611fcf565b82525050565b60006020820190506120056000830184611fe1565b92915050565b61201481611fcf565b811461201f57600080fd5b50565b6000813590506120318161200b565b92915050565b6000806040838503121561204e5761204d611dcc565b5b600061205c85828601612022565b925050602061206d85828601611f6d565b9150509250929050565b61208081611f4c565b82525050565b600060208201905061209b6000830184612077565b92915050565b6000806000606084860312156120ba576120b9611dcc565b5b60006120c886828701612022565b93505060206120d986828701612022565b92505060406120ea86828701611f6d565b9150509250925092565b60006020828403121561210a57612109611dcc565b5b600061211884828501612022565b91505092915050565b61212a81611e5b565b811461213557600080fd5b50565b60008135905061214781612121565b92915050565b6000806040838503121561216457612163611dcc565b5b600061217285828601612022565b925050602061218385828601612138565b9150509250929050565b600080fd5b600080fd5b7f4e487b7100000000000000000000000000000000000000000000000000000000600052604160045260246000fd5b6121cf82611ee0565b810181811067ffffffffffffffff821117156121ee576121ed612197565b5b80604052505050565b6000612201611dc2565b905061220d82826121c6565b919050565b600067ffffffffffffffff82111561222d5761222c612197565b5b61223682611ee0565b9050602081019050919050565b82818337600083830152505050565b600061226561226084612212565b6121f7565b90508281526020810184848401111561228157612280612192565b5b61228c848285612243565b509392505050565b600082601f8301126122a9576122a861218d565b5b81356122b9848260208601612252565b91505092915050565b600080600080608085870312156122dc576122db611dcc565b5b60006122ea87828801612022565b94505060206122fb87828801612022565b935050604061230c87828801611f6d565b925050606085013567ffffffffffffffff81111561232d5761232c611dd1565b5b61233987828801612294565b91505092959194509250565b6000806040838503121561235c5761235b611dcc565b5b600061236a85828601612022565b925050602061237b85828601612022565b9150509250929050565b7f4e487b7100000000000000000000000000000000000000000000000000000000600052602260045260246000fd5b600060028204905060018216806123cc57607f821691505b602082108114156123e0576123df612385565b5b50919050565b7f4552433732313a20617070726f76616c20746f2063757272656e74206f776e6560008201527f7200000000000000000000000000000000000000000000000000000000000000602082015250565b6000612442602183611e9c565b915061244d826123e6565b604082019050919050565b6000602082019050818103600083015261247181612435565b9050919050565b7f4552433732313a20617070726f76652063616c6c6572206973206e6f7420746f60008201527f6b656e206f776e6572206e6f7220617070726f76656420666f7220616c6c0000602082015250565b60006124d4603e83611e9c565b91506124df82612478565b604082019050919050565b60006020820190508181036000830152612503816124c7565b9050919050565b7f4e487b7100000000000000000000000000000000000000000000000000000000600052601160045260246000fd5b600061254482611f4c565b91507fffffffffffffffffffffffffffffffffffffffffffffffffffffffffffffffff8214156125775761257661250a565b5b600182019050919050565b600081905092915050565b60008190508160005260206000209050919050565b600081546125af816123b4565b6125b98186612582565b945060018216600081146125d457600181146125e557612618565b60ff19831686528186019350612618565b6125ee8561258d565b60005b83811015612610578154818901526001820191506020810190506125f1565b838801955050505b50505092915050565b600061262c82611e91565b6126368185612582565b9350612646818560208601611ead565b80840191505092915050565b7f2e6a736f6e000000000000000000000000000000000000000000000000000000600082015250565b6000612688600583612582565b915061269382612652565b600582019050919050565b60006126aa82856125a2565b91506126b68284612621565b91506126c18261267b565b91508190509392505050565b7f4552433732313a2063616c6c6572206973206e6f7420746f6b656e206f776e6560008201527f72206e6f7220617070726f766564000000000000000000000000000000000000602082015250565b6000612729602e83611e9c565b9150612734826126cd565b604082019050919050565b600060208201905081810360008301526127588161271c565b9050919050565b7f6e6f74206f776e6572206f6620746f6b656e0000000000000000000000000000600082015250565b6000612795601283611e9c565b91506127a08261275f565b602082019050919050565b600060208201905081810360008301526127c481612788565b9050919050565b60006127d682611f4c565b91506127e183611f4c565b9250828210156127f4576127f361250a565b5b828203905092915050565b600061280a82611f4c565b9150600082141561281e5761281d61250a565b5b600182039050919050565b600060608201905061283e6000830186611fe1565b61284b6020830185611fe1565b6128586040830184612077565b949350505050565b7f4552433732313a20696e76616c696420746f6b656e2049440000000000000000600082015250565b6000612896601883611e9c565b91506128a182612860565b602082019050919050565b600060208201905081810360008301526128c581612889565b9050919050565b7f4552433732313a2061646472657373207a65726f206973206e6f74206120766160008201527f6c6964206f776e65720000000000000000000000000000000000000000000000602082015250565b6000612928602983611e9c565b9150612933826128cc565b604082019050919050565b600060208201905081810360008301526129578161291b565b9050919050565b600061296a8285612621565b91506129768284612621565b91508190509392505050565b7f4552433732313a206d696e7420746f20746865207a65726f2061646472657373600082015250565b60006129b8602083611e9c565b91506129c382612982565b602082019050919050565b600060208201905081810360008301526129e7816129ab565b9050919050565b7f4552433732313a20746f6b656e20616c7265616479206d696e74656400000000600082015250565b6000612a24601c83611e9c565b9150612a2f826129ee565b602082019050919050565b60006020820190508181036000830152612a5381612a17565b9050919050565b6000612a6582611f4c565b9150612a7083611f4c565b9250827fffffffffffffffffffffffffffffffffffffffffffffffffffffffffffffffff03821115612aa557612aa461250a565b5b828201905092915050565b7f4e487b7100000000000000000000000000000000000000000000000000000000600052601260045260246000fd5b6000612aea82611f4c565b9150612af583611f4c565b925082612b0557612b04612ab0565b5b828204905092915050565b6000612b1b82611f4c565b9150612b2683611f4c565b925082612b3657612b35612ab0565b5b828206905092915050565b7f4e487b7100000000000000000000000000000000000000000000000000000000600052603260045260246000fd5b7f45524337323155524953746f726167653a2055524920736574206f66206e6f6e60008201527f6578697374656e7420746f6b656e000000000000000000000000000000000000602082015250565b6000612bcc602e83611e9c565b9150612bd782612b70565b604082019050919050565b60006020820190508181036000830152612bfb81612bbf565b9050919050565b7f4552433732313a207472616e736665722066726f6d20696e636f72726563742060008201527f6f776e6572000000000000000000000000000000000000000000000000000000602082015250565b6000612c5e602583611e9c565b9150612c6982612c02565b604082019050919050565b60006020820190508181036000830152612c8d81612c51565b9050919050565b7f4552433732313a207472616e7366657220746f20746865207a65726f2061646460008201527f7265737300000000000000000000000000000000000000000000000000000000602082015250565b6000612cf0602483611e9c565b9150612cfb82612c94565b604082019050919050565b60006020820190508181036000830152612d1f81612ce3565b9050919050565b7f4552433732313a20617070726f766520746f2063616c6c657200000000000000600082015250565b6000612d5c601983611e9c565b9150612d6782612d26565b602082019050919050565b60006020820190508181036000830152612d8b81612d4f565b9050919050565b7f4552433732313a207472616e7366657220746f206e6f6e20455243373231526560008201527f63656976657220696d706c656d656e7465720000000000000000000000000000602082015250565b6000612dee603283611e9c565b9150612df982612d92565b604082019050919050565b60006020820190508181036000830152612e1d81612de1565b9050919050565b600081519050919050565b600082825260208201905092915050565b6000612e4b82612e24565b612e558185612e2f565b9350612e65818560208601611ead565b612e6e81611ee0565b840191505092915050565b6000608082019050612e8e6000830187611fe1565b612e9b6020830186611fe1565b612ea86040830185612077565b8181036060830152612eba8184612e40565b905095945050505050565b600081519050612ed481611e02565b92915050565b600060208284031215612ef057612eef611dcc565b5b6000612efe84828501612ec5565b9150509291505056fea2646970667358221220b32a3317684657a6dc7c079b62dce6c0f03a420b5acdf6b505961af9b5708f8864736f6c6343000809003368747470733a2f2f697066732e696f2f697066732f516d624d694e397143334d655a7179763768705258414b54594e3659704b6a39526263703762396569774b3763592f",
  "linkReferences": {},
  "deployedLinkReferences": {}
}